{
  "_format": "hh-sol-artifact-1",
  "contractName": "Date",
  "sourceName": "contracts/utils/Date.sol",
  "abi": [
    {
      "inputs": [
        {
          "internalType": "string",
          "name": "dateString",
          "type": "string"
        }
      ],
      "name": "validateDateString",
      "outputs": [
        {
          "internalType": "bool",
          "name": "",
          "type": "bool"
        }
      ],
      "stateMutability": "pure",
      "type": "function"
    }
  ],
  "bytecode": "0x612c54610053600b82828239805160001a607314610046577f4e487b7100000000000000000000000000000000000000000000000000000000600052600060045260246000fd5b30600052607381538281f3fe73000000000000000000000000000000000000000030146080604052600436106100355760003560e01c8063ec9c24171461003a575b600080fd5b610054600480360381019061004f9190612a11565b61006a565b6040516100619190612a65565b60405180910390f35b60008083838080601f016020809104026020016040519081016040528093929190818152602001838380828437600081840152601f19601f82011690508083019250505050505050905060088151146100c75760009150506129c1565b600081600081518110610103577f4e487b7100000000000000000000000000000000000000000000000000000000600052603260045260246000fd5b602001015160f81c60f81b905060008260018151811061014c577f4e487b7100000000000000000000000000000000000000000000000000000000600052603260045260246000fd5b602001015160f81c60f81b9050600083600281518110610195577f4e487b7100000000000000000000000000000000000000000000000000000000600052603260045260246000fd5b602001015160f81c60f81b90506000846003815181106101de577f4e487b7100000000000000000000000000000000000000000000000000000000600052603260045260246000fd5b602001015160f81c60f81b9050600085600481518110610227577f4e487b7100000000000000000000000000000000000000000000000000000000600052603260045260246000fd5b602001015160f81c60f81b7effffffffffffffffffffffffffffffffffffffffffffffffffffffffffffff191681179050600886600581518110610294577f4e487b7100000000000000000000000000000000000000000000000000000000600052603260045260246000fd5b602001015160f81c60f81b7effffffffffffffffffffffffffffffffffffffffffffffffffffffffffffff19167dffffffffffffffffffffffffffffffffffffffffffffffffffffffffffff1916901c81179050600086600681518110610324577f4e487b7100000000000000000000000000000000000000000000000000000000600052603260045260246000fd5b602001015160f81c60f81b7effffffffffffffffffffffffffffffffffffffffffffffffffffffffffffff191681179050600887600781518110610391577f4e487b7100000000000000000000000000000000000000000000000000000000600052603260045260246000fd5b602001015160f81c60f81b7effffffffffffffffffffffffffffffffffffffffffffffffffffffffffffff19167dffffffffffffffffffffffffffffffffffffffffffffffffffffffffffff1916901c8117905060006001905080801561047d5750603060f81b877effffffffffffffffffffffffffffffffffffffffffffffffffffffffffffff1916148061044c5750603160f81b877effffffffffffffffffffffffffffffffffffffffffffffffffffffffffffff1916145b8061047c5750603260f81b877effffffffffffffffffffffffffffffffffffffffffffffffffffffffffffff1916145b5b90508080156106615750603060f81b867effffffffffffffffffffffffffffffffffffffffffffffffffffffffffffff191614806104e05750603160f81b867effffffffffffffffffffffffffffffffffffffffffffffffffffffffffffff1916145b806105105750603260f81b867effffffffffffffffffffffffffffffffffffffffffffffffffffffffffffff1916145b806105405750603360f81b867effffffffffffffffffffffffffffffffffffffffffffffffffffffffffffff1916145b806105705750603460f81b867effffffffffffffffffffffffffffffffffffffffffffffffffffffffffffff1916145b806105a05750603560f81b867effffffffffffffffffffffffffffffffffffffffffffffffffffffffffffff1916145b806105d05750603660f81b867effffffffffffffffffffffffffffffffffffffffffffffffffffffffffffff1916145b806106005750603760f81b867effffffffffffffffffffffffffffffffffffffffffffffffffffffffffffff1916145b806106305750603860f81b867effffffffffffffffffffffffffffffffffffffffffffffffffffffffffffff1916145b806106605750603960f81b867effffffffffffffffffffffffffffffffffffffffffffffffffffffffffffff1916145b5b90508080156108455750603060f81b857effffffffffffffffffffffffffffffffffffffffffffffffffffffffffffff191614806106c45750603160f81b857effffffffffffffffffffffffffffffffffffffffffffffffffffffffffffff1916145b806106f45750603260f81b857effffffffffffffffffffffffffffffffffffffffffffffffffffffffffffff1916145b806107245750603360f81b857effffffffffffffffffffffffffffffffffffffffffffffffffffffffffffff1916145b806107545750603460f81b857effffffffffffffffffffffffffffffffffffffffffffffffffffffffffffff1916145b806107845750603560f81b857effffffffffffffffffffffffffffffffffffffffffffffffffffffffffffff1916145b806107b45750603660f81b857effffffffffffffffffffffffffffffffffffffffffffffffffffffffffffff1916145b806107e45750603760f81b857effffffffffffffffffffffffffffffffffffffffffffffffffffffffffffff1916145b806108145750603860f81b857effffffffffffffffffffffffffffffffffffffffffffffffffffffffffffff1916145b806108445750603960f81b857effffffffffffffffffffffffffffffffffffffffffffffffffffffffffffff1916145b5b9050808015610a295750603060f81b847effffffffffffffffffffffffffffffffffffffffffffffffffffffffffffff191614806108a85750603160f81b847effffffffffffffffffffffffffffffffffffffffffffffffffffffffffffff1916145b806108d85750603260f81b847effffffffffffffffffffffffffffffffffffffffffffffffffffffffffffff1916145b806109085750603360f81b847effffffffffffffffffffffffffffffffffffffffffffffffffffffffffffff1916145b806109385750603460f81b847effffffffffffffffffffffffffffffffffffffffffffffffffffffffffffff1916145b806109685750603560f81b847effffffffffffffffffffffffffffffffffffffffffffffffffffffffffffff1916145b806109985750603660f81b847effffffffffffffffffffffffffffffffffffffffffffffffffffffffffffff1916145b806109c85750603760f81b847effffffffffffffffffffffffffffffffffffffffffffffffffffffffffffff1916145b806109f85750603860f81b847effffffffffffffffffffffffffffffffffffffffffffffffffffffffffffff1916145b80610a285750603960f81b847effffffffffffffffffffffffffffffffffffffffffffffffffffffffffffff1916145b5b9050808015610c6d575061303160f01b837dffffffffffffffffffffffffffffffffffffffffffffffffffffffffffff19161480610a8c575061303260f01b837dffffffffffffffffffffffffffffffffffffffffffffffffffffffffffff1916145b80610abc575061303360f01b837dffffffffffffffffffffffffffffffffffffffffffffffffffffffffffff1916145b80610aec575061303460f01b837dffffffffffffffffffffffffffffffffffffffffffffffffffffffffffff1916145b80610b1c575061303560f01b837dffffffffffffffffffffffffffffffffffffffffffffffffffffffffffff1916145b80610b4c575061303660f01b837dffffffffffffffffffffffffffffffffffffffffffffffffffffffffffff1916145b80610b7c575061303760f01b837dffffffffffffffffffffffffffffffffffffffffffffffffffffffffffff1916145b80610bac575061303860f01b837dffffffffffffffffffffffffffffffffffffffffffffffffffffffffffff1916145b80610bdc575061303960f01b837dffffffffffffffffffffffffffffffffffffffffffffffffffffffffffff1916145b80610c0c575061313060f01b837dffffffffffffffffffffffffffffffffffffffffffffffffffffffffffff1916145b80610c3c575061313160f01b837dffffffffffffffffffffffffffffffffffffffffffffffffffffffffffff1916145b80610c6c575061313260f01b837dffffffffffffffffffffffffffffffffffffffffffffffffffffffffffff1916145b5b905080610c79576129b5565b61303160f01b837dffffffffffffffffffffffffffffffffffffffffffffffffffffffffffff19161480610cd2575061303360f01b837dffffffffffffffffffffffffffffffffffffffffffffffffffffffffffff1916145b80610d02575061303560f01b837dffffffffffffffffffffffffffffffffffffffffffffffffffffffffffff1916145b80610d32575061303760f01b837dffffffffffffffffffffffffffffffffffffffffffffffffffffffffffff1916145b80610d62575061303860f01b837dffffffffffffffffffffffffffffffffffffffffffffffffffffffffffff1916145b80610d92575061313060f01b837dffffffffffffffffffffffffffffffffffffffffffffffffffffffffffff1916145b80610dc2575061313260f01b837dffffffffffffffffffffffffffffffffffffffffffffffffffffffffffff1916145b156113a057808015611399575061303160f01b827dffffffffffffffffffffffffffffffffffffffffffffffffffffffffffff19161480610e28575061303260f01b827dffffffffffffffffffffffffffffffffffffffffffffffffffffffffffff1916145b80610e58575061303360f01b827dffffffffffffffffffffffffffffffffffffffffffffffffffffffffffff1916145b80610e88575061303460f01b827dffffffffffffffffffffffffffffffffffffffffffffffffffffffffffff1916145b80610eb8575061303560f01b827dffffffffffffffffffffffffffffffffffffffffffffffffffffffffffff1916145b80610ee8575061303660f01b827dffffffffffffffffffffffffffffffffffffffffffffffffffffffffffff1916145b80610f18575061303760f01b827dffffffffffffffffffffffffffffffffffffffffffffffffffffffffffff1916145b80610f48575061303860f01b827dffffffffffffffffffffffffffffffffffffffffffffffffffffffffffff1916145b80610f78575061303960f01b827dffffffffffffffffffffffffffffffffffffffffffffffffffffffffffff1916145b80610fa8575061313060f01b827dffffffffffffffffffffffffffffffffffffffffffffffffffffffffffff1916145b80610fd8575061313160f01b827dffffffffffffffffffffffffffffffffffffffffffffffffffffffffffff1916145b80611008575061313260f01b827dffffffffffffffffffffffffffffffffffffffffffffffffffffffffffff1916145b80611038575061313360f01b827dffffffffffffffffffffffffffffffffffffffffffffffffffffffffffff1916145b80611068575061313460f01b827dffffffffffffffffffffffffffffffffffffffffffffffffffffffffffff1916145b80611098575061313560f01b827dffffffffffffffffffffffffffffffffffffffffffffffffffffffffffff1916145b806110c8575061313660f01b827dffffffffffffffffffffffffffffffffffffffffffffffffffffffffffff1916145b806110f8575061313760f01b827dffffffffffffffffffffffffffffffffffffffffffffffffffffffffffff1916145b80611128575061313860f01b827dffffffffffffffffffffffffffffffffffffffffffffffffffffffffffff1916145b80611158575061313960f01b827dffffffffffffffffffffffffffffffffffffffffffffffffffffffffffff1916145b80611188575061323060f01b827dffffffffffffffffffffffffffffffffffffffffffffffffffffffffffff1916145b806111b8575061323160f01b827dffffffffffffffffffffffffffffffffffffffffffffffffffffffffffff1916145b806111e8575061323260f01b827dffffffffffffffffffffffffffffffffffffffffffffffffffffffffffff1916145b80611218575061323360f01b827dffffffffffffffffffffffffffffffffffffffffffffffffffffffffffff1916145b80611248575061323460f01b827dffffffffffffffffffffffffffffffffffffffffffffffffffffffffffff1916145b80611278575061323560f01b827dffffffffffffffffffffffffffffffffffffffffffffffffffffffffffff1916145b806112a8575061323660f01b827dffffffffffffffffffffffffffffffffffffffffffffffffffffffffffff1916145b806112d8575061323760f01b827dffffffffffffffffffffffffffffffffffffffffffffffffffffffffffff1916145b80611308575061323860f01b827dffffffffffffffffffffffffffffffffffffffffffffffffffffffffffff1916145b80611338575061323960f01b827dffffffffffffffffffffffffffffffffffffffffffffffffffffffffffff1916145b80611368575061333060f01b827dffffffffffffffffffffffffffffffffffffffffffffffffffffffffffff1916145b80611398575061333160f01b827dffffffffffffffffffffffffffffffffffffffffffffffffffffffffffff1916145b5b90506129b4565b61303460f01b837dffffffffffffffffffffffffffffffffffffffffffffffffffffffffffff191614806113f9575061303660f01b837dffffffffffffffffffffffffffffffffffffffffffffffffffffffffffff1916145b80611429575061303960f01b837dffffffffffffffffffffffffffffffffffffffffffffffffffffffffffff1916145b80611459575061313160f01b837dffffffffffffffffffffffffffffffffffffffffffffffffffffffffffff1916145b15611a0757808015611a00575061303160f01b827dffffffffffffffffffffffffffffffffffffffffffffffffffffffffffff191614806114bf575061303260f01b827dffffffffffffffffffffffffffffffffffffffffffffffffffffffffffff1916145b806114ef575061303360f01b827dffffffffffffffffffffffffffffffffffffffffffffffffffffffffffff1916145b8061151f575061303460f01b827dffffffffffffffffffffffffffffffffffffffffffffffffffffffffffff1916145b8061154f575061303560f01b827dffffffffffffffffffffffffffffffffffffffffffffffffffffffffffff1916145b8061157f575061303660f01b827dffffffffffffffffffffffffffffffffffffffffffffffffffffffffffff1916145b806115af575061303760f01b827dffffffffffffffffffffffffffffffffffffffffffffffffffffffffffff1916145b806115df575061303860f01b827dffffffffffffffffffffffffffffffffffffffffffffffffffffffffffff1916145b8061160f575061303960f01b827dffffffffffffffffffffffffffffffffffffffffffffffffffffffffffff1916145b8061163f575061313060f01b827dffffffffffffffffffffffffffffffffffffffffffffffffffffffffffff1916145b8061166f575061313160f01b827dffffffffffffffffffffffffffffffffffffffffffffffffffffffffffff1916145b8061169f575061313260f01b827dffffffffffffffffffffffffffffffffffffffffffffffffffffffffffff1916145b806116cf575061313360f01b827dffffffffffffffffffffffffffffffffffffffffffffffffffffffffffff1916145b806116ff575061313460f01b827dffffffffffffffffffffffffffffffffffffffffffffffffffffffffffff1916145b8061172f575061313560f01b827dffffffffffffffffffffffffffffffffffffffffffffffffffffffffffff1916145b8061175f575061313660f01b827dffffffffffffffffffffffffffffffffffffffffffffffffffffffffffff1916145b8061178f575061313760f01b827dffffffffffffffffffffffffffffffffffffffffffffffffffffffffffff1916145b806117bf575061313860f01b827dffffffffffffffffffffffffffffffffffffffffffffffffffffffffffff1916145b806117ef575061313960f01b827dffffffffffffffffffffffffffffffffffffffffffffffffffffffffffff1916145b8061181f575061323060f01b827dffffffffffffffffffffffffffffffffffffffffffffffffffffffffffff1916145b8061184f575061323160f01b827dffffffffffffffffffffffffffffffffffffffffffffffffffffffffffff1916145b8061187f575061323260f01b827dffffffffffffffffffffffffffffffffffffffffffffffffffffffffffff1916145b806118af575061323360f01b827dffffffffffffffffffffffffffffffffffffffffffffffffffffffffffff1916145b806118df575061323460f01b827dffffffffffffffffffffffffffffffffffffffffffffffffffffffffffff1916145b8061190f575061323560f01b827dffffffffffffffffffffffffffffffffffffffffffffffffffffffffffff1916145b8061193f575061323660f01b827dffffffffffffffffffffffffffffffffffffffffffffffffffffffffffff1916145b8061196f575061323760f01b827dffffffffffffffffffffffffffffffffffffffffffffffffffffffffffff1916145b8061199f575061323860f01b827dffffffffffffffffffffffffffffffffffffffffffffffffffffffffffff1916145b806119cf575061323960f01b827dffffffffffffffffffffffffffffffffffffffffffffffffffffffffffff1916145b806119ff575061333060f01b827dffffffffffffffffffffffffffffffffffffffffffffffffffffffffffff1916145b5b90506129b3565b61303260f01b837dffffffffffffffffffffffffffffffffffffffffffffffffffffffffffff191614156129b257600080600090505b6004811015611ec4576000603160f81b8b8381518110611a86577f4e487b7100000000000000000000000000000000000000000000000000000000600052603260045260246000fd5b602001015160f81c60f81b7effffffffffffffffffffffffffffffffffffffffffffffffffffffffffffff19161415611ac25760019050611e96565b603260f81b8b8381518110611b00577f4e487b7100000000000000000000000000000000000000000000000000000000600052603260045260246000fd5b602001015160f81c60f81b7effffffffffffffffffffffffffffffffffffffffffffffffffffffffffffff19161415611b3c5760029050611e95565b603360f81b8b8381518110611b7a577f4e487b7100000000000000000000000000000000000000000000000000000000600052603260045260246000fd5b602001015160f81c60f81b7effffffffffffffffffffffffffffffffffffffffffffffffffffffffffffff19161415611bb65760039050611e94565b603460f81b8b8381518110611bf4577f4e487b7100000000000000000000000000000000000000000000000000000000600052603260045260246000fd5b602001015160f81c60f81b7effffffffffffffffffffffffffffffffffffffffffffffffffffffffffffff19161415611c305760049050611e93565b603560f81b8b8381518110611c6e577f4e487b7100000000000000000000000000000000000000000000000000000000600052603260045260246000fd5b602001015160f81c60f81b7effffffffffffffffffffffffffffffffffffffffffffffffffffffffffffff19161415611caa5760059050611e92565b603660f81b8b8381518110611ce8577f4e487b7100000000000000000000000000000000000000000000000000000000600052603260045260246000fd5b602001015160f81c60f81b7effffffffffffffffffffffffffffffffffffffffffffffffffffffffffffff19161415611d245760069050611e91565b603760f81b8b8381518110611d62577f4e487b7100000000000000000000000000000000000000000000000000000000600052603260045260246000fd5b602001015160f81c60f81b7effffffffffffffffffffffffffffffffffffffffffffffffffffffffffffff19161415611d9e5760079050611e90565b603860f81b8b8381518110611ddc577f4e487b7100000000000000000000000000000000000000000000000000000000600052603260045260246000fd5b602001015160f81c60f81b7effffffffffffffffffffffffffffffffffffffffffffffffffffffffffffff19161415611e185760089050611e8f565b603960f81b8b8381518110611e56577f4e487b7100000000000000000000000000000000000000000000000000000000600052603260045260246000fd5b602001015160f81c60f81b7effffffffffffffffffffffffffffffffffffffffffffffffffffffffffffff19161415611e8e57600990505b5b5b5b5b5b5b5b5b80600a84611ea49190612ad6565b611eae9190612a80565b9250508080611ebc90612b46565b915050611a3d565b506000606482611ed49190612b8f565b1480611eed57506000600482611eea9190612b8f565b14155b1561243b57818015612434575061303160f01b837dffffffffffffffffffffffffffffffffffffffffffffffffffffffffffff19161480611f53575061303260f01b837dffffffffffffffffffffffffffffffffffffffffffffffffffffffffffff1916145b80611f83575061303360f01b837dffffffffffffffffffffffffffffffffffffffffffffffffffffffffffff1916145b80611fb3575061303460f01b837dffffffffffffffffffffffffffffffffffffffffffffffffffffffffffff1916145b80611fe3575061303560f01b837dffffffffffffffffffffffffffffffffffffffffffffffffffffffffffff1916145b80612013575061303660f01b837dffffffffffffffffffffffffffffffffffffffffffffffffffffffffffff1916145b80612043575061303760f01b837dffffffffffffffffffffffffffffffffffffffffffffffffffffffffffff1916145b80612073575061303860f01b837dffffffffffffffffffffffffffffffffffffffffffffffffffffffffffff1916145b806120a3575061303960f01b837dffffffffffffffffffffffffffffffffffffffffffffffffffffffffffff1916145b806120d3575061313060f01b837dffffffffffffffffffffffffffffffffffffffffffffffffffffffffffff1916145b80612103575061313160f01b837dffffffffffffffffffffffffffffffffffffffffffffffffffffffffffff1916145b80612133575061313260f01b837dffffffffffffffffffffffffffffffffffffffffffffffffffffffffffff1916145b80612163575061313360f01b837dffffffffffffffffffffffffffffffffffffffffffffffffffffffffffff1916145b80612193575061313460f01b837dffffffffffffffffffffffffffffffffffffffffffffffffffffffffffff1916145b806121c3575061313560f01b837dffffffffffffffffffffffffffffffffffffffffffffffffffffffffffff1916145b806121f3575061313660f01b837dffffffffffffffffffffffffffffffffffffffffffffffffffffffffffff1916145b80612223575061313760f01b837dffffffffffffffffffffffffffffffffffffffffffffffffffffffffffff1916145b80612253575061313860f01b837dffffffffffffffffffffffffffffffffffffffffffffffffffffffffffff1916145b80612283575061313960f01b837dffffffffffffffffffffffffffffffffffffffffffffffffffffffffffff1916145b806122b3575061323060f01b837dffffffffffffffffffffffffffffffffffffffffffffffffffffffffffff1916145b806122e3575061323160f01b837dffffffffffffffffffffffffffffffffffffffffffffffffffffffffffff1916145b80612313575061323260f01b837dffffffffffffffffffffffffffffffffffffffffffffffffffffffffffff1916145b80612343575061323360f01b837dffffffffffffffffffffffffffffffffffffffffffffffffffffffffffff1916145b80612373575061323460f01b837dffffffffffffffffffffffffffffffffffffffffffffffffffffffffffff1916145b806123a3575061323560f01b837dffffffffffffffffffffffffffffffffffffffffffffffffffffffffffff1916145b806123d3575061323660f01b837dffffffffffffffffffffffffffffffffffffffffffffffffffffffffffff1916145b80612403575061323760f01b837dffffffffffffffffffffffffffffffffffffffffffffffffffffffffffff1916145b80612433575061323860f01b837dffffffffffffffffffffffffffffffffffffffffffffffffffffffffffff1916145b5b91506129b0565b8180156129ad575061303160f01b837dffffffffffffffffffffffffffffffffffffffffffffffffffffffffffff1916148061249c575061303260f01b837dffffffffffffffffffffffffffffffffffffffffffffffffffffffffffff1916145b806124cc575061303360f01b837dffffffffffffffffffffffffffffffffffffffffffffffffffffffffffff1916145b806124fc575061303460f01b837dffffffffffffffffffffffffffffffffffffffffffffffffffffffffffff1916145b8061252c575061303560f01b837dffffffffffffffffffffffffffffffffffffffffffffffffffffffffffff1916145b8061255c575061303660f01b837dffffffffffffffffffffffffffffffffffffffffffffffffffffffffffff1916145b8061258c575061303760f01b837dffffffffffffffffffffffffffffffffffffffffffffffffffffffffffff1916145b806125bc575061303860f01b837dffffffffffffffffffffffffffffffffffffffffffffffffffffffffffff1916145b806125ec575061303960f01b837dffffffffffffffffffffffffffffffffffffffffffffffffffffffffffff1916145b8061261c575061313060f01b837dffffffffffffffffffffffffffffffffffffffffffffffffffffffffffff1916145b8061264c575061313160f01b837dffffffffffffffffffffffffffffffffffffffffffffffffffffffffffff1916145b8061267c575061313260f01b837dffffffffffffffffffffffffffffffffffffffffffffffffffffffffffff1916145b806126ac575061313360f01b837dffffffffffffffffffffffffffffffffffffffffffffffffffffffffffff1916145b806126dc575061313460f01b837dffffffffffffffffffffffffffffffffffffffffffffffffffffffffffff1916145b8061270c575061313560f01b837dffffffffffffffffffffffffffffffffffffffffffffffffffffffffffff1916145b8061273c575061313660f01b837dffffffffffffffffffffffffffffffffffffffffffffffffffffffffffff1916145b8061276c575061313760f01b837dffffffffffffffffffffffffffffffffffffffffffffffffffffffffffff1916145b8061279c575061313860f01b837dffffffffffffffffffffffffffffffffffffffffffffffffffffffffffff1916145b806127cc575061313960f01b837dffffffffffffffffffffffffffffffffffffffffffffffffffffffffffff1916145b806127fc575061323060f01b837dffffffffffffffffffffffffffffffffffffffffffffffffffffffffffff1916145b8061282c575061323160f01b837dffffffffffffffffffffffffffffffffffffffffffffffffffffffffffff1916145b8061285c575061323260f01b837dffffffffffffffffffffffffffffffffffffffffffffffffffffffffffff1916145b8061288c575061323360f01b837dffffffffffffffffffffffffffffffffffffffffffffffffffffffffffff1916145b806128bc575061323460f01b837dffffffffffffffffffffffffffffffffffffffffffffffffffffffffffff1916145b806128ec575061323560f01b837dffffffffffffffffffffffffffffffffffffffffffffffffffffffffffff1916145b8061291c575061323660f01b837dffffffffffffffffffffffffffffffffffffffffffffffffffffffffffff1916145b8061294c575061323760f01b837dffffffffffffffffffffffffffffffffffffffffffffffffffffffffffff1916145b8061297c575061323860f01b837dffffffffffffffffffffffffffffffffffffffffffffffffffffffffffff1916145b806129ac575061323960f01b837dffffffffffffffffffffffffffffffffffffffffffffffffffffffffffff1916145b5b91505b505b5b5b5b80985050505050505050505b92915050565b60008083601f8401126129d957600080fd5b8235905067ffffffffffffffff8111156129f257600080fd5b602083019150836001820283011115612a0a57600080fd5b9250929050565b60008060208385031215612a2457600080fd5b600083013567ffffffffffffffff811115612a3e57600080fd5b612a4a858286016129c7565b92509250509250929050565b612a5f81612b30565b82525050565b6000602082019050612a7a6000830184612a56565b92915050565b6000612a8b82612b3c565b9150612a9683612b3c565b9250827fffffffffffffffffffffffffffffffffffffffffffffffffffffffffffffffff03821115612acb57612aca612bc0565b5b828201905092915050565b6000612ae182612b3c565b9150612aec83612b3c565b9250817fffffffffffffffffffffffffffffffffffffffffffffffffffffffffffffffff0483118215151615612b2557612b24612bc0565b5b828202905092915050565b60008115159050919050565b6000819050919050565b6000612b5182612b3c565b91507fffffffffffffffffffffffffffffffffffffffffffffffffffffffffffffffff821415612b8457612b83612bc0565b5b600182019050919050565b6000612b9a82612b3c565b9150612ba583612b3c565b925082612bb557612bb4612bef565b5b828206905092915050565b7f4e487b7100000000000000000000000000000000000000000000000000000000600052601160045260246000fd5b7f4e487b7100000000000000000000000000000000000000000000000000000000600052601260045260246000fdfea2646970667358221220d882a856a34b9a623d5811bc31f66e761d61a82455c97c55377ce6f06ca232cb64736f6c63430008040033",
  "linkReferences": {},
  "deployedLinkReferences": {}
}