{
  "_format": "hh-sol-artifact-1",
  "contractName": "Number",
  "sourceName": "contracts/utils/Number.sol",
  "abi": [
    {
      "inputs": [
        {
          "internalType": "uint256",
          "name": "value",
          "type": "uint256"
        }
      ],
      "name": "uintToStringBytes",
      "outputs": [
        {
          "internalType": "bytes",
          "name": "",
          "type": "bytes"
        }
      ],
      "stateMutability": "pure",
      "type": "function"
    }
  ],
  "bytecode": "0x6104fa610053600b82828239805160001a607314610046577f4e487b7100000000000000000000000000000000000000000000000000000000600052600060045260246000fd5b30600052607381538281f3fe73000000000000000000000000000000000000000030146080604052600436106100355760003560e01c8063c8b1f2f91461003a575b600080fd5b610054600480360381019061004f919061022c565b61006a565b604051610061919061028e565b60405180910390f35b606060008214156100b2576040518060400160405280600181526020017f30000000000000000000000000000000000000000000000000000000000000008152509050610212565b600082905060005b600082146100e45780806100cd906103c4565b915050600a826100dd9190610322565b91506100ba565b60008167ffffffffffffffff811115610126577f4e487b7100000000000000000000000000000000000000000000000000000000600052604160045260246000fd5b6040519080825280601f01601f1916602001820160405280156101585781602001600182028036833780820191505090505b5090505b6000851461020b576001826101719190610353565b9150600a85610180919061040d565b603061018c91906102cc565b60f81b8183815181106101c8577f4e487b7100000000000000000000000000000000000000000000000000000000600052603260045260246000fd5b60200101907effffffffffffffffffffffffffffffffffffffffffffffffffffffffffffff1916908160001a905350600a856102049190610322565b945061015c565b8093505050505b919050565b600081359050610226816104ad565b92915050565b60006020828403121561023e57600080fd5b600061024c84828501610217565b91505092915050565b6000610260826102b0565b61026a81856102bb565b935061027a818560208601610391565b6102838161049c565b840191505092915050565b600060208201905081810360008301526102a88184610255565b905092915050565b600081519050919050565b600082825260208201905092915050565b60006102d782610387565b91506102e283610387565b9250827fffffffffffffffffffffffffffffffffffffffffffffffffffffffffffffffff038211156103175761031661043e565b5b828201905092915050565b600061032d82610387565b915061033883610387565b9250826103485761034761046d565b5b828204905092915050565b600061035e82610387565b915061036983610387565b92508282101561037c5761037b61043e565b5b828203905092915050565b6000819050919050565b60005b838110156103af578082015181840152602081019050610394565b838111156103be576000848401525b50505050565b60006103cf82610387565b91507fffffffffffffffffffffffffffffffffffffffffffffffffffffffffffffffff8214156104025761040161043e565b5b600182019050919050565b600061041882610387565b915061042383610387565b9250826104335761043261046d565b5b828206905092915050565b7f4e487b7100000000000000000000000000000000000000000000000000000000600052601160045260246000fd5b7f4e487b7100000000000000000000000000000000000000000000000000000000600052601260045260246000fd5b6000601f19601f8301169050919050565b6104b681610387565b81146104c157600080fd5b5056fea264697066735822122067a1b3bdfe0a28d978c1afe7e048704844b963260868b077ea06377110a7836464736f6c63430008040033",
  "linkReferences": {},
  "deployedLinkReferences": {}
}