{
  "_format": "hh-sol-artifact-1",
  "contractName": "Image",
  "sourceName": "contracts/utils/Image.sol",
  "abi": [
    {
      "inputs": [],
      "name": "generateSVG",
      "outputs": [
        {
          "internalType": "bytes",
          "name": "",
          "type": "bytes"
        }
      ],
      "stateMutability": "pure",
      "type": "function"
    }
  ],
  "bytecode": "0x61288d610053600b82828239805160001a607314610046577f4e487b7100000000000000000000000000000000000000000000000000000000600052600060045260246000fd5b30600052607381538281f3fe73000000000000000000000000000000000000000030146080604052600436106100355760003560e01c8063ad711e9e1461003a575b600080fd5b610042610058565b60405161004f9190611190565b60405180910390f35b606080806040518060c001604052806082815260200161178d6082913960405160200161008692919061116c565b6040516020818303038152906040529050806040518060600160405280603c81526020016121b1603c91396040516020016100c292919061116c565b604051602081830303815290604052905080604051806060016040528060398152602001611391603991396040516020016100fe92919061116c565b6040516020818303038152906040529050806040518060800160405280605a8152602001611249605a913960405160200161013a92919061116c565b6040516020818303038152906040529050806040518060a00160405280607a81526020016113ca607a913960405160200161017692919061116c565b6040516020818303038152906040529050806040518060c00160405280609b81526020016120b4609b91396040516020016101b292919061116c565b6040516020818303038152906040529050806040518060c00160405280609b8152602001611936609b91396040516020016101ee92919061116c565b6040516020818303038152906040529050806040518060600160405280603a8152602001611d1a603a913960405160200161022a92919061116c565b6040516020818303038152906040529050806040518060400160405280600481526020017f3c2f673e0000000000000000000000000000000000000000000000000000000081525060405160200161028392919061116c565b60405160208183030381529060405290508060405180606001604052806038815260200161183a603891396040516020016102bf92919061116c565b6040516020818303038152906040529050806040518060800160405280605a8152602001611249605a91396040516020016102fb92919061116c565b6040516020818303038152906040529050806040518060800160405280605a8152602001611733605a913960405160200161033792919061116c565b6040516020818303038152906040529050806040518060600160405280603a81526020016123c5603a913960405160200161037392919061116c565b6040516020818303038152906040529050806040518060800160405280605b8152602001611444605b91396040516020016103af92919061116c565b6040516020818303038152906040529050806040518060800160405280605b8152602001612016605b91396040516020016103eb92919061116c565b6040516020818303038152906040529050806040518060400160405280600481526020017f3c2f673e0000000000000000000000000000000000000000000000000000000081525060405160200161044492919061116c565b6040516020818303038152906040529050806040518060600160405280603a8152602001612522603a913960405160200161048092919061116c565b6040516020818303038152906040529050806040518060800160405280605a815260200161255c605a91396040516020016104bc92919061116c565b6040516020818303038152906040529050806040518060a00160405280606181526020016118d5606191396040516020016104f892919061116c565b6040516020818303038152906040529050806040518060a0016040528060638152602001611e236063913960405160200161053492919061116c565b6040516020818303038152906040529050806040518060a00160405280606381526020016118726063913960405160200161057092919061116c565b6040516020818303038152906040529050806040518060a00160405280606b8152602001611aa9606b91396040516020016105ac92919061116c565b6040516020818303038152906040529050806040518060600160405280602a8152602001611c84602a91396040516020016105e892919061116c565b6040516020818303038152906040529050806040518060a0016040528060738152602001611db06073913960405160200161062492919061116c565b6040516020818303038152906040529050806040518060a00160405280606b815260200161232f606b913960405160200161066092919061116c565b6040516020818303038152906040529050806040518060a00160405280606281526020016126186062913960405160200161069c92919061116c565b6040516020818303038152906040529050806040518060a00160405280606b81526020016126e6606b91396040516020016106d892919061116c565b6040516020818303038152906040529050806040518060a00160405280606181526020016113306061913960405160200161071492919061116c565b6040516020818303038152906040529050806040518060a00160405280607281526020016115566072913960405160200161075092919061116c565b6040516020818303038152906040529050806040518060a0016040528060628152602001611e866062913960405160200161078c92919061116c565b6040516020818303038152906040529050806040518060c00160405280608b8152602001612751608b91396040516020016107c892919061116c565b6040516020818303038152906040529050806040518060a001604052806062815260200161222f6062913960405160200161080492919061116c565b6040516020818303038152906040529050806040518060c00160405280608b81526020016115c8608b913960405160200161084092919061116c565b6040516020818303038152906040529050806040518060800160405280605b8152602001611b80605b913960405160200161087c92919061116c565b6040516020818303038152906040529050806040518060600160405280603a815260200161167e603a91396040516020016108b892919061116c565b6040516020818303038152906040529050806040518060600160405280602a81526020016112a3602a91396040516020016108f492919061116c565b6040516020818303038152906040529050806040518060600160405280602a8152602001611c5a602a913960405160200161093092919061116c565b6040516020818303038152906040529050806040518060a00160405280607b81526020016116b8607b913960405160200161096c92919061116c565b6040516020818303038152906040529050806040518060a001604052806062815260200161214f606291396040516020016109a892919061116c565b6040516020818303038152906040529050806040518060a00160405280606c8152602001611ee8606c91396040516020016109e492919061116c565b6040516020818303038152906040529050806040518060600160405280602b81526020016123ff602b9139604051602001610a2092919061116c565b6040516020818303038152906040529050806040518060a00160405280606c8152602001611faa606c9139604051602001610a5c92919061116c565b6040516020818303038152906040529050806040518060a00160405280606c8152602001611b14606c9139604051602001610a9892919061116c565b6040516020818303038152906040529050806040518060a00160405280606c8152602001611cae606c9139604051602001610ad492919061116c565b6040516020818303038152906040529050806040518060600160405280602b815260200161180f602b9139604051602001610b1092919061116c565b6040516020818303038152906040529050806040518060600160405280602b8152602001611f54602b9139604051602001610b4c92919061116c565b6040516020818303038152906040529050806040518060600160405280602b8152602001611bdb602b9139604051602001610b8892919061116c565b6040516020818303038152906040529050806040518060a00160405280606281526020016125b660629139604051602001610bc492919061116c565b6040516020818303038152906040529050806040518060800160405280604281526020016121ed60429139604051602001610c0092919061116c565b6040516020818303038152906040529050806040518060a00160405280607c81526020016127dc607c9139604051602001610c3c92919061116c565b6040516020818303038152906040529050806040518060a00160405280606381526020016112cd60639139604051602001610c7892919061116c565b6040516020818303038152906040529050806040518060a00160405280606c81526020016119d1606c9139604051602001610cb492919061116c565b6040516020818303038152906040529050806040518060a00160405280607c81526020016114da607c9139604051602001610cf092919061116c565b6040516020818303038152906040529050806040518060600160405280602b8152602001612304602b9139604051602001610d2c92919061116c565b6040516020818303038152906040529050806040518060600160405280602b8152602001611653602b9139604051602001610d6892919061116c565b6040516020818303038152906040529050806040518060600160405280602b8152602001611f7f602b9139604051602001610da492919061116c565b6040516020818303038152906040529050806040518060600160405280602b815260200161239a602b9139604051602001610de092919061116c565b6040516020818303038152906040529050806040518060a001604052806073815260200161229160739139604051602001610e1c92919061116c565b60405160208183030381529060405290508060405180608001604052806043815260200161207160439139604051602001610e5892919061116c565b6040516020818303038152906040529050806040518060800160405280605c8152602001611d54605c9139604051602001610e9492919061116c565b6040516020818303038152906040529050806040518060a00160405280607c815260200161242a607c9139604051602001610ed092919061116c565b6040516020818303038152906040529050806040518060a00160405280607c81526020016124a6607c9139604051602001610f0c92919061116c565b6040516020818303038152906040529050806040518060600160405280602b815260200161121e602b9139604051602001610f4892919061116c565b6040516020818303038152906040529050806040518060a00160405280606c815260200161267a606c9139604051602001610f8492919061116c565b6040516020818303038152906040529050806040518060a00160405280606c8152602001611a3d606c9139604051602001610fc092919061116c565b604051602081830303815290604052905080604051806080016040528060548152602001611c0660549139604051602001610ffc92919061116c565b6040516020818303038152906040529050806040518060600160405280603b815260200161149f603b913960405160200161103892919061116c565b6040516020818303038152906040529050806040518060400160405280600481526020017f3c2f673e0000000000000000000000000000000000000000000000000000000081525060405160200161109192919061116c565b6040516020818303038152906040529050806040518060400160405280600681526020017f3c2f7376673e00000000000000000000000000000000000000000000000000008152506040516020016110ea92919061116c565b60405160208183030381529060405290508091505090565b600061110d826111b2565b61111781856111bd565b93506111278185602086016111d9565b6111308161120c565b840191505092915050565b6000611146826111b2565b61115081856111ce565b93506111608185602086016111d9565b80840191505092915050565b6000611178828561113b565b9150611184828461113b565b91508190509392505050565b600060208201905081810360008301526111aa8184611102565b905092915050565b600081519050919050565b600082825260208201905092915050565b600081905092915050565b60005b838110156111f75780820151818401526020810190506111dc565b83811115611206576000848401525b50505050565b6000601f19601f830116905091905056fe3c7061746820643d2222207472616e73666f726d3d227472616e736c6174652833302c2033322922202f3e3c7061746820643d224d322c304c332c304c332c344c352c344c352c354c302c354c302c344c322c344c322c324c312c324c312c314c322c315a22207472616e73666f726d3d227472616e736c61746528302c20302922202f3e3c7061746820643d2222207472616e73666f726d3d227472616e736c6174652834382c20382922202f3e3c7061746820643d224d312c304c352c304c352c354c342c354c342c344c312c344c312c354c302c354c302c314c312c314c312c334c342c334c342c314c312c3122207472616e73666f726d3d227472616e736c6174652831382c2032342922202f3e3c7061746820643d224d312c304c352c304c352c354c342c354c342c344c312c344c312c354c302c354c302c314c312c314c312c334c342c334c342c314c312c3122207472616e73666f726d3d227472616e736c61746528302c20382922202f3e3c67207472616e73666f726d3d227472616e736c61746528342c203829207363616c6528312e3629222066696c6c3d2223653934333565223e3c7061746820643d224d312c304c342c304c342c314c352c314c352c344c342c344c342c354c312c354c312c344c342c344c342c334c312c334c312c324c302c324c302c314c312c314c312c324c342c324c342c314c312c315a22207472616e73666f726d3d227472616e736c61746528362c20302922202f3e3c7061746820643d224d322c304c332c304c332c344c352c344c352c354c302c354c302c344c322c344c322c324c312c324c312c314c322c315a22207472616e73666f726d3d227472616e736c6174652831382c20302922202f3e3c7061746820643d224d312c344c332c344c332c354c312c3522207472616e73666f726d3d227472616e736c6174652835342c2033322922202f3e3c7061746820643d224d312c304c352c304c352c314c312c314c312c324c342c324c342c334c352c334c352c344c342c344c342c354c302c354c302c344c342c344c342c334c312c334c312c324c302c324c302c314c312c315a22207472616e73666f726d3d227472616e736c6174652833302c2032342922202f3e3c7061746820643d224d302c304c342c304c342c314c312c314c312c334c342c334c342c314c352c314c352c334c342c334c342c344c352c344c352c354c342c354c342c344c312c344c312c354c302c355a22207472616e73666f726d3d227472616e736c61746528362c20382922202f3e3c7061746820643d224d302c304c312c304c312c324c332c324c332c314c342c314c342c304c352c304c352c314c342c314c342c324c332c324c332c334c342c334c342c344c352c344c352c354c342c354c342c344c332c344c332c334c312c334c312c354c302c355a22207472616e73666f726d3d227472616e736c6174652833302c20382922202f3e3c7061746820643d2222207472616e73666f726d3d227472616e736c6174652834322c2032342922202f3e3c7061746820643d224d312c344c332c344c332c354c312c3522207472616e73666f726d3d227472616e736c6174652834322c20382922202f3e3c7061746820643d224d302c304c312c304c312c314c322c314c322c324c332c324c332c314c342c314c342c304c352c304c352c354c342c354c342c324c332c324c332c334c322c334c322c324c312c324c312c354c302c355a22207472616e73666f726d3d227472616e736c61746528302c2031362922202f3e3c7061746820643d224d322c304c332c304c332c344c352c344c352c354c302c354c302c344c322c344c322c324c312c324c312c314c322c315a22207472616e73666f726d3d227472616e736c61746528362c20302922202f3e3c73766720786d6c6e733d22687474703a2f2f7777772e77332e6f72672f323030302f7376672220786d6c6e733a786c696e6b3d22687474703a2f2f7777772e77332e6f72672f313939392f786c696e6b222076696577426f783d223020302031303020313030222077696474683d2234303022206865696768743d22343030223e3c7061746820643d2222207472616e73666f726d3d227472616e736c6174652834322c2031362922202f3e3c67207472616e73666f726d3d227472616e736c61746528342c20323429207363616c65283329222066696c6c3d2223653934333565223e3c7061746820643d224d302c304c342c304c342c314c312c314c312c334c342c334c342c314c352c314c352c334c342c334c342c344c312c344c312c354c302c355a22207472616e73666f726d3d227472616e736c6174652831382c20302922202f3e3c7061746820643d224d312c304c352c304c352c354c342c354c342c344c312c344c312c354c302c354c302c314c312c314c312c334c342c334c342c314c312c3122207472616e73666f726d3d227472616e736c61746528362c20302922202f3e3c7061746820643d224d312c304c342c304c342c314c352c314c352c324c342c324c342c334c352c334c352c344c342c344c342c354c312c354c312c344c302c344c302c334c312c334c312c344c342c344c342c334c312c334c312c324c302c324c302c314c312c314c312c324c342c324c342c314c312c315a22207472616e73666f726d3d227472616e736c6174652831382c20302922202f3e3c7061746820643d224d302c304c312c304c312c324c342c324c342c304c352c304c352c344c342c344c342c354c302c354c302c344c342c344c342c334c312c334c312c324c302c325a22207472616e73666f726d3d227472616e736c6174652832342c2032342922202f3e3c7061746820643d224d312c304c342c304c342c314c352c314c352c344c342c344c342c354c312c354c312c344c302c344c302c314c312c314c312c344c342c344c342c314c312c315a22207472616e73666f726d3d227472616e736c6174652834322c2033322922202f3e3c7061746820643d224d302c304c312c304c312c324c342c324c342c304c352c304c352c344c342c344c342c354c302c354c302c344c342c344c342c334c312c334c312c324c302c325a22207472616e73666f726d3d227472616e736c6174652832342c20302922202f3e3c7061746820643d224d312c304c342c304c342c314c352c314c352c344c342c344c342c354c312c354c312c344c302c344c302c314c312c314c312c344c342c344c342c314c312c315a22207472616e73666f726d3d227472616e736c6174652833302c2031362922202f3e3c7061746820643d224d302c304c352c304c352c314c332c314c332c344c352c344c352c354c302c354c302c344c322c344c322c314c302c315a22207472616e73666f726d3d227472616e736c6174652833362c20382922202f3e3c7061746820643d2222207472616e73666f726d3d227472616e736c6174652835342c2031362922202f3e3c7061746820643d224d302c304c312c304c312c344c342c344c342c304c352c304c352c354c312c354c312c344c302c345a22207472616e73666f726d3d227472616e736c6174652834382c2033322922202f3e3c7061746820643d2222207472616e73666f726d3d227472616e736c6174652835342c20382922202f3e3c7061746820643d2222207472616e73666f726d3d227472616e736c6174652833302c20302922202f3e3c7061746820643d224d302c304c332c304c332c314c342c314c342c324c352c324c352c344c342c344c342c324c332c324c332c314c312c314c312c344c342c344c342c354c302c355a22207472616e73666f726d3d227472616e736c6174652833362c2031362922202f3e3c7061746820643d224d312c344c332c344c332c354c312c3522207472616e73666f726d3d227472616e736c6174652832342c20302922202f3e3c7061746820643d224d302c304c352c304c352c314c312c314c312c324c332c324c332c334c312c334c312c344c352c344c352c354c302c355a22207472616e73666f726d3d227472616e736c6174652831322c2033322922202f3e3c7061746820643d224d302c304c342c304c342c314c352c314c352c324c342c324c342c314c312c314c312c324c342c324c342c334c312c334c312c344c342c344c342c334c352c334c352c354c302c355a22207472616e73666f726d3d227472616e736c6174652833362c20302922202f3e3c7061746820643d224d302c304c342c304c342c314c312c314c312c334c342c334c342c314c352c314c352c334c342c334c342c344c312c344c312c354c302c355a22207472616e73666f726d3d227472616e736c6174652831322c20302922202f3e3c7061746820643d224d312c304c352c304c352c354c342c354c342c344c312c344c312c354c302c354c302c314c312c314c312c334c342c334c342c314c312c3122207472616e73666f726d3d227472616e736c6174652831322c20382922202f3e3c7061746820643d224d302c304c312c304c312c324c342c324c342c304c352c304c352c344c342c344c342c354c302c354c302c344c342c344c342c334c312c334c312c324c302c325a22207472616e73666f726d3d227472616e736c6174652831322c2031362922202f3e3c7061746820643d2222207472616e73666f726d3d227472616e736c6174652834382c2031362922202f3e3c7061746820643d2222207472616e73666f726d3d227472616e736c6174652834382c2032342922202f3e3c7061746820643d224d312c304c352c304c352c314c312c314c312c344c342c344c342c334c332c334c332c324c352c324c352c354c312c354c312c344c302c344c302c314c312c315a22207472616e73666f726d3d227472616e736c6174652832342c2031362922202f3e3c7061746820643d224d322c304c332c304c332c344c352c344c352c354c302c354c302c344c322c344c322c324c312c324c312c314c322c315a22207472616e73666f726d3d227472616e736c6174652832342c20302922202f3e3c7061746820643d224d302c304c312c304c312c344c352c344c352c354c302c355a22207472616e73666f726d3d227472616e736c61746528362c2033322922202f3e3c7061746820643d224d312c304c342c304c342c314c352c314c352c324c342c324c342c334c352c334c352c344c342c344c342c354c312c354c312c344c302c344c302c334c312c334c312c344c342c344c342c334c312c334c312c324c302c324c302c314c312c314c312c324c342c324c342c314c312c315a22207472616e73666f726d3d227472616e736c6174652831322c20302922202f3e3c7061746820643d224d312c304c352c304c352c354c342c354c342c344c312c344c312c354c302c354c302c314c312c314c312c334c342c334c342c314c312c3122207472616e73666f726d3d227472616e736c61746528362c2031362922202f3e3c7265637420783d22302220793d2230222077696474683d2231303022206865696768743d22313030222066696c6c3d222365646332373122202f3e3c7061746820643d224d302c304c312c304c312c344c352c344c352c354c302c3522207472616e73666f726d3d227472616e736c61746528362c2032342922202f3e3c7061746820643d224d312c304c352c304c352c354c342c354c342c344c312c344c312c354c302c354c302c314c312c314c312c334c342c334c342c314c312c3122207472616e73666f726d3d227472616e736c6174652832342c20382922202f3e3c7061746820643d224d302c304c342c304c342c314c352c314c352c324c342c324c342c314c312c314c312c324c342c324c342c334c312c334c312c344c342c344c342c334c352c334c352c354c302c355a22207472616e73666f726d3d227472616e736c61746528302c2033322922202f3e3c7061746820643d2222207472616e73666f726d3d227472616e736c6174652833362c2032342922202f3e3c7061746820643d224d302c304c332c304c332c314c342c314c342c324c352c324c352c344c342c344c342c324c332c324c332c314c312c314c312c344c342c344c342c354c302c355a22207472616e73666f726d3d227472616e736c6174652834322c20302922202f3e3c7061746820643d2222207472616e73666f726d3d227472616e736c6174652835342c2032342922202f3e3c7061746820643d224d312c344c332c344c332c354c312c3522207472616e73666f726d3d227472616e736c6174652831322c20302922202f3e3c7061746820643d2222207472616e73666f726d3d227472616e736c6174652831382c2031362922202f3e3c7061746820643d224d312c304c352c304c352c314c312c314c312c324c342c324c342c334c352c334c352c344c342c344c342c354c302c354c302c344c342c344c342c334c312c334c312c324c302c324c302c314c312c315a22207472616e73666f726d3d227472616e736c6174652831382c2033322922202f3e3c7061746820643d224d312c304c352c304c352c314c312c314c312c324c342c324c342c334c352c334c352c344c342c344c342c354c302c354c302c344c342c344c342c334c312c334c312c324c302c324c302c314c312c315a22207472616e73666f726d3d227472616e736c6174652832342c2033322922202f3e3c67207472616e73666f726d3d227472616e736c61746528342c20343829207363616c6528312e3229222066696c6c3d2223363836386163223e3c7061746820643d224d302c304c312c304c312c334c342c334c342c304c352c304c352c354c342c354c342c344c312c344c312c354c302c355a22207472616e73666f726d3d227472616e736c61746528302c20302922202f3e3c7061746820643d224d312c304c352c304c352c354c342c354c342c344c312c344c312c354c302c354c302c314c312c314c312c334c342c334c342c314c312c3122207472616e73666f726d3d227472616e736c61746528302c2032342922202f3e3c7061746820643d224d312c304c352c304c352c354c342c354c342c344c312c344c312c354c302c354c302c314c312c314c312c334c342c334c342c314c312c3122207472616e73666f726d3d227472616e736c6174652834382c20302922202f3e3c7061746820643d224d302c304c312c304c312c324c342c324c342c304c352c304c352c344c342c344c342c354c302c354c302c344c342c344c342c334c312c334c312c324c302c325a22207472616e73666f726d3d227472616e736c6174652833362c2033322922202f3e3c7061746820643d224d302c304c312c304c312c324c342c324c342c304c352c304c352c344c342c344c342c354c302c354c302c344c342c344c342c334c312c334c312c324c302c325a22207472616e73666f726d3d227472616e736c6174652835342c20302922202f3e3c7061746820643d224d302c304c312c304c312c324c332c324c332c314c342c314c342c304c352c304c352c314c342c314c342c324c332c324c332c334c342c334c342c344c352c344c352c354c342c354c342c344c332c344c332c334c312c334c312c354c302c355a22207472616e73666f726d3d227472616e736c6174652831382c20382922202f3e3c7061746820643d224d302c304c312c304c312c344c322c344c322c334c332c334c332c344c342c344c342c304c352c304c352c344c342c344c342c354c332c354c332c344c322c344c322c354c312c354c312c344c302c345a22207472616e73666f726d3d227472616e736c6174652831322c2032342922202f3ea26469706673582212203ea589cf5cedbd0a461e2196534dd039da98e522a4d8585332572b38f6955c2164736f6c63430008040033",
  "linkReferences": {},
  "deployedLinkReferences": {}
}