{
  "_format": "hh-sol-artifact-1",
  "contractName": "TheDatesNft",
  "sourceName": "contracts/TheDatesNft.sol",
  "abi": [
    {
      "inputs": [],
      "stateMutability": "nonpayable",
      "type": "constructor"
    },
    {
      "anonymous": false,
      "inputs": [
        {
          "indexed": true,
          "internalType": "address",
          "name": "owner",
          "type": "address"
        },
        {
          "indexed": true,
          "internalType": "address",
          "name": "approved",
          "type": "address"
        },
        {
          "indexed": true,
          "internalType": "uint256",
          "name": "tokenId",
          "type": "uint256"
        }
      ],
      "name": "Approval",
      "type": "event"
    },
    {
      "anonymous": false,
      "inputs": [
        {
          "indexed": true,
          "internalType": "address",
          "name": "owner",
          "type": "address"
        },
        {
          "indexed": true,
          "internalType": "address",
          "name": "operator",
          "type": "address"
        },
        {
          "indexed": false,
          "internalType": "bool",
          "name": "approved",
          "type": "bool"
        }
      ],
      "name": "ApprovalForAll",
      "type": "event"
    },
    {
      "anonymous": false,
      "inputs": [
        {
          "indexed": true,
          "internalType": "address",
          "name": "previousOwner",
          "type": "address"
        },
        {
          "indexed": true,
          "internalType": "address",
          "name": "newOwner",
          "type": "address"
        }
      ],
      "name": "OwnershipTransferred",
      "type": "event"
    },
    {
      "anonymous": false,
      "inputs": [
        {
          "indexed": true,
          "internalType": "address",
          "name": "from",
          "type": "address"
        },
        {
          "indexed": true,
          "internalType": "address",
          "name": "to",
          "type": "address"
        },
        {
          "indexed": true,
          "internalType": "uint256",
          "name": "tokenId",
          "type": "uint256"
        }
      ],
      "name": "Transfer",
      "type": "event"
    },
    {
      "inputs": [
        {
          "internalType": "address",
          "name": "to",
          "type": "address"
        },
        {
          "internalType": "uint256",
          "name": "tokenId",
          "type": "uint256"
        }
      ],
      "name": "approve",
      "outputs": [],
      "stateMutability": "nonpayable",
      "type": "function"
    },
    {
      "inputs": [
        {
          "internalType": "address",
          "name": "owner",
          "type": "address"
        }
      ],
      "name": "balanceOf",
      "outputs": [
        {
          "internalType": "uint256",
          "name": "",
          "type": "uint256"
        }
      ],
      "stateMutability": "view",
      "type": "function"
    },
    {
      "inputs": [],
      "name": "claim",
      "outputs": [],
      "stateMutability": "nonpayable",
      "type": "function"
    },
    {
      "inputs": [
        {
          "internalType": "uint256",
          "name": "tokenId",
          "type": "uint256"
        }
      ],
      "name": "colors",
      "outputs": [
        {
          "internalType": "string[3]",
          "name": "",
          "type": "string[3]"
        }
      ],
      "stateMutability": "view",
      "type": "function"
    },
    {
      "inputs": [],
      "name": "currentTokenId",
      "outputs": [
        {
          "internalType": "uint256",
          "name": "",
          "type": "uint256"
        }
      ],
      "stateMutability": "view",
      "type": "function"
    },
    {
      "inputs": [
        {
          "internalType": "uint256",
          "name": "tokenId",
          "type": "uint256"
        }
      ],
      "name": "date",
      "outputs": [
        {
          "internalType": "string",
          "name": "",
          "type": "string"
        }
      ],
      "stateMutability": "view",
      "type": "function"
    },
    {
      "inputs": [
        {
          "internalType": "uint256",
          "name": "tokenId",
          "type": "uint256"
        }
      ],
      "name": "getApproved",
      "outputs": [
        {
          "internalType": "address",
          "name": "",
          "type": "address"
        }
      ],
      "stateMutability": "view",
      "type": "function"
    },
    {
      "inputs": [
        {
          "internalType": "address",
          "name": "owner",
          "type": "address"
        },
        {
          "internalType": "address",
          "name": "operator",
          "type": "address"
        }
      ],
      "name": "isApprovedForAll",
      "outputs": [
        {
          "internalType": "bool",
          "name": "",
          "type": "bool"
        }
      ],
      "stateMutability": "view",
      "type": "function"
    },
    {
      "inputs": [],
      "name": "isClaimable",
      "outputs": [
        {
          "internalType": "bool",
          "name": "",
          "type": "bool"
        }
      ],
      "stateMutability": "view",
      "type": "function"
    },
    {
      "inputs": [
        {
          "internalType": "uint256",
          "name": "tokenId",
          "type": "uint256"
        }
      ],
      "name": "message",
      "outputs": [
        {
          "internalType": "string",
          "name": "",
          "type": "string"
        }
      ],
      "stateMutability": "view",
      "type": "function"
    },
    {
      "inputs": [
        {
          "internalType": "uint256",
          "name": "tokenId",
          "type": "uint256"
        }
      ],
      "name": "messageWriter",
      "outputs": [
        {
          "internalType": "address",
          "name": "",
          "type": "address"
        }
      ],
      "stateMutability": "view",
      "type": "function"
    },
    {
      "inputs": [],
      "name": "name",
      "outputs": [
        {
          "internalType": "string",
          "name": "",
          "type": "string"
        }
      ],
      "stateMutability": "view",
      "type": "function"
    },
    {
      "inputs": [],
      "name": "owner",
      "outputs": [
        {
          "internalType": "address",
          "name": "",
          "type": "address"
        }
      ],
      "stateMutability": "view",
      "type": "function"
    },
    {
      "inputs": [
        {
          "internalType": "uint256",
          "name": "tokenId",
          "type": "uint256"
        }
      ],
      "name": "ownerOf",
      "outputs": [
        {
          "internalType": "address",
          "name": "",
          "type": "address"
        }
      ],
      "stateMutability": "view",
      "type": "function"
    },
    {
      "inputs": [],
      "name": "renounceOwnership",
      "outputs": [],
      "stateMutability": "nonpayable",
      "type": "function"
    },
    {
      "inputs": [
        {
          "internalType": "address",
          "name": "from",
          "type": "address"
        },
        {
          "internalType": "address",
          "name": "to",
          "type": "address"
        },
        {
          "internalType": "uint256",
          "name": "tokenId",
          "type": "uint256"
        }
      ],
      "name": "safeTransferFrom",
      "outputs": [],
      "stateMutability": "nonpayable",
      "type": "function"
    },
    {
      "inputs": [
        {
          "internalType": "address",
          "name": "from",
          "type": "address"
        },
        {
          "internalType": "address",
          "name": "to",
          "type": "address"
        },
        {
          "internalType": "uint256",
          "name": "tokenId",
          "type": "uint256"
        },
        {
          "internalType": "bytes",
          "name": "_data",
          "type": "bytes"
        }
      ],
      "name": "safeTransferFrom",
      "outputs": [],
      "stateMutability": "nonpayable",
      "type": "function"
    },
    {
      "inputs": [
        {
          "internalType": "address",
          "name": "operator",
          "type": "address"
        },
        {
          "internalType": "bool",
          "name": "approved",
          "type": "bool"
        }
      ],
      "name": "setApprovalForAll",
      "outputs": [],
      "stateMutability": "nonpayable",
      "type": "function"
    },
    {
      "inputs": [
        {
          "internalType": "uint256",
          "name": "tokenId",
          "type": "uint256"
        },
        {
          "internalType": "string[]",
          "name": "_colors",
          "type": "string[]"
        }
      ],
      "name": "setColors",
      "outputs": [],
      "stateMutability": "nonpayable",
      "type": "function"
    },
    {
      "inputs": [
        {
          "internalType": "uint256",
          "name": "tokenId",
          "type": "uint256"
        },
        {
          "internalType": "string",
          "name": "dateString",
          "type": "string"
        }
      ],
      "name": "setDate",
      "outputs": [],
      "stateMutability": "nonpayable",
      "type": "function"
    },
    {
      "inputs": [
        {
          "internalType": "bool",
          "name": "__isClaimable",
          "type": "bool"
        }
      ],
      "name": "setIsClaimable",
      "outputs": [],
      "stateMutability": "nonpayable",
      "type": "function"
    },
    {
      "inputs": [
        {
          "internalType": "uint256",
          "name": "tokenId",
          "type": "uint256"
        },
        {
          "internalType": "string",
          "name": "messageString",
          "type": "string"
        }
      ],
      "name": "setMessage",
      "outputs": [],
      "stateMutability": "nonpayable",
      "type": "function"
    },
    {
      "inputs": [
        {
          "internalType": "bytes4",
          "name": "interfaceId",
          "type": "bytes4"
        }
      ],
      "name": "supportsInterface",
      "outputs": [
        {
          "internalType": "bool",
          "name": "",
          "type": "bool"
        }
      ],
      "stateMutability": "view",
      "type": "function"
    },
    {
      "inputs": [],
      "name": "symbol",
      "outputs": [
        {
          "internalType": "string",
          "name": "",
          "type": "string"
        }
      ],
      "stateMutability": "view",
      "type": "function"
    },
    {
      "inputs": [
        {
          "internalType": "uint256",
          "name": "index",
          "type": "uint256"
        }
      ],
      "name": "tokenByIndex",
      "outputs": [
        {
          "internalType": "uint256",
          "name": "",
          "type": "uint256"
        }
      ],
      "stateMutability": "view",
      "type": "function"
    },
    {
      "inputs": [
        {
          "internalType": "address",
          "name": "owner",
          "type": "address"
        },
        {
          "internalType": "uint256",
          "name": "index",
          "type": "uint256"
        }
      ],
      "name": "tokenOfOwnerByIndex",
      "outputs": [
        {
          "internalType": "uint256",
          "name": "",
          "type": "uint256"
        }
      ],
      "stateMutability": "view",
      "type": "function"
    },
    {
      "inputs": [
        {
          "internalType": "uint256",
          "name": "tokenId",
          "type": "uint256"
        }
      ],
      "name": "tokenURI",
      "outputs": [
        {
          "internalType": "string",
          "name": "",
          "type": "string"
        }
      ],
      "stateMutability": "view",
      "type": "function"
    },
    {
      "inputs": [],
      "name": "totalSupply",
      "outputs": [
        {
          "internalType": "uint256",
          "name": "",
          "type": "uint256"
        }
      ],
      "stateMutability": "view",
      "type": "function"
    },
    {
      "inputs": [
        {
          "internalType": "address",
          "name": "from",
          "type": "address"
        },
        {
          "internalType": "address",
          "name": "to",
          "type": "address"
        },
        {
          "internalType": "uint256",
          "name": "tokenId",
          "type": "uint256"
        }
      ],
      "name": "transferFrom",
      "outputs": [],
      "stateMutability": "nonpayable",
      "type": "function"
    },
    {
      "inputs": [
        {
          "internalType": "address",
          "name": "newOwner",
          "type": "address"
        }
      ],
      "name": "transferOwnership",
      "outputs": [],
      "stateMutability": "nonpayable",
      "type": "function"
    }
  ],
  "bytecode": "0x60806040523480156200001157600080fd5b506040518060400160405280600981526020017f54686520446174657300000000000000000000000000000000000000000000008152506040518060400160405280600381526020017f445453000000000000000000000000000000000000000000000000000000000081525081600090805190602001906200009692919062000219565b508060019080519060200190620000af92919062000219565b505050620000d2620000c66200014b60201b60201c565b6200015360201b60201c565b620000e26200014b60201b60201c565b600b60006101000a81548173ffffffffffffffffffffffffffffffffffffffff021916908373ffffffffffffffffffffffffffffffffffffffff1602179055506000600b60146101000a81548160ff0219169083151502179055506000600c819055506200032e565b600033905090565b6000600a60009054906101000a900473ffffffffffffffffffffffffffffffffffffffff16905081600a60006101000a81548173ffffffffffffffffffffffffffffffffffffffff021916908373ffffffffffffffffffffffffffffffffffffffff1602179055508173ffffffffffffffffffffffffffffffffffffffff168173ffffffffffffffffffffffffffffffffffffffff167f8be0079c531659141344cd1fd0a4f28419497f9722a3daafe3b4186f6b6457e060405160405180910390a35050565b8280546200022790620002c9565b90600052602060002090601f0160209004810192826200024b576000855562000297565b82601f106200026657805160ff191683800117855562000297565b8280016001018555821562000297579182015b828111156200029657825182559160200191906001019062000279565b5b509050620002a69190620002aa565b5090565b5b80821115620002c5576000816000905550600101620002ab565b5090565b60006002820490506001821680620002e257607f821691505b60208210811415620002f957620002f8620002ff565b5b50919050565b7f4e487b7100000000000000000000000000000000000000000000000000000000600052602260045260246000fd5b6156c7806200033e6000396000f3fe608060405234801561001057600080fd5b50600436106101d95760003560e01c8063648345c811610104578063b88d4fde116100a2578063e81c2ffa11610071578063e81c2ffa1461057a578063e985e9c514610596578063f2fde38b146105c6578063f75c7a12146105e2576101d9565b8063b88d4fde146104ce578063bd11f69d146104ea578063c87b56dd1461051a578063d1e8507b1461054a576101d9565b806374478bb3116100de57806374478bb3146104585780638da5cb5b1461047657806395d89b4114610494578063a22cb465146104b2576101d9565b8063648345c81461040257806370a082311461041e578063715018a61461044e576101d9565b806323b872dd1161017c5780634e71d92d1161014b5780634e71d92d146103685780634f6ccce71461037257806360c757ba146103a25780636352211e146103d2576101d9565b806323b872dd146102e45780632f745c5914610300578063408fb0be1461033057806342842e0e1461034c576101d9565b8063081812fc116101b8578063081812fc1461024a578063095ea7b31461027a5780630ab90d6d1461029657806318160ddd146102c6576101d9565b80629a9b7b146101de57806301ffc9a7146101fc57806306fdde031461022c575b600080fd5b6101e66105fe565b6040516101f39190614a98565b60405180910390f35b61021660048036038101906102119190613e5b565b610608565b604051610223919061471c565b60405180910390f35b610234610682565b604051610241919061475b565b60405180910390f35b610264600480360381019061025f9190613f2f565b610714565b6040516102719190614693565b60405180910390f35b610294600480360381019061028f9190613dcd565b610799565b005b6102b060048036038101906102ab9190613f2f565b6108b1565b6040516102bd9190614693565b60405180910390f35b6102ce6108ee565b6040516102db9190614a98565b60405180910390f35b6102fe60048036038101906102f99190613cc7565b6108fb565b005b61031a60048036038101906103159190613dcd565b61095b565b6040516103279190614a98565b60405180910390f35b61034a60048036038101906103459190613e09565b610a00565b005b61036660048036038101906103619190613cc7565b610ab4565b005b610370610ad4565b005b61038c60048036038101906103879190613f2f565b610b91565b6040516103999190614a98565b60405180910390f35b6103bc60048036038101906103b79190613f2f565b610c28565b6040516103c9919061475b565b60405180910390f35b6103ec60048036038101906103e79190613f2f565b610ccd565b6040516103f99190614693565b60405180910390f35b61041c60048036038101906104179190613fb0565b610d7f565b005b61043860048036038101906104339190613c62565b610f0f565b6040516104459190614a98565b60405180910390f35b610456610fc7565b005b61046061104f565b60405161046d919061471c565b60405180910390f35b61047e611066565b60405161048b9190614693565b60405180910390f35b61049c611090565b6040516104a9919061475b565b60405180910390f35b6104cc60048036038101906104c79190613d91565b611122565b005b6104e860048036038101906104e39190613d16565b611138565b005b61050460048036038101906104ff9190613f2f565b61119a565b60405161051191906146fa565b60405180910390f35b610534600480360381019061052f9190613f2f565b61134d565b604051610541919061475b565b60405180910390f35b610564600480360381019061055f9190613f2f565b6120c1565b604051610571919061475b565b60405180910390f35b610594600480360381019061058f9190613f58565b612166565b005b6105b060048036038101906105ab9190613c8b565b61224e565b6040516105bd919061471c565b60405180910390f35b6105e060048036038101906105db9190613c62565b6122e2565b005b6105fc60048036038101906105f79190613fb0565b6123da565b005b6000600c54905090565b60007f780e9d63000000000000000000000000000000000000000000000000000000007bffffffffffffffffffffffffffffffffffffffffffffffffffffffff1916827bffffffffffffffffffffffffffffffffffffffffffffffffffffffff1916148061067b575061067a8261264e565b5b9050919050565b60606000805461069190614e3a565b80601f01602080910402602001604051908101604052809291908181526020018280546106bd90614e3a565b801561070a5780601f106106df5761010080835404028352916020019161070a565b820191906000526020600020905b8154815290600101906020018083116106ed57829003601f168201915b5050505050905090565b600061071f82612730565b61075e576040517f08c379a00000000000000000000000000000000000000000000000000000000081526004016107559061497d565b60405180910390fd5b6004600083815260200190815260200160002060009054906101000a900473ffffffffffffffffffffffffffffffffffffffff169050919050565b60006107a482610ccd565b90508073ffffffffffffffffffffffffffffffffffffffff168373ffffffffffffffffffffffffffffffffffffffff161415610815576040517f08c379a000000000000000000000000000000000000000000000000000000000815260040161080c906149fd565b60405180910390fd5b8073ffffffffffffffffffffffffffffffffffffffff1661083461279c565b73ffffffffffffffffffffffffffffffffffffffff16148061086357506108628161085d61279c565b61224e565b5b6108a2576040517f08c379a0000000000000000000000000000000000000000000000000000000008152600401610899906148fd565b60405180910390fd5b6108ac83836127a4565b505050565b60006010600083815260200190815260200160002060009054906101000a900473ffffffffffffffffffffffffffffffffffffffff169050919050565b6000600880549050905090565b61090c61090661279c565b8261285d565b61094b576040517f08c379a000000000000000000000000000000000000000000000000000000000815260040161094290614a1d565b60405180910390fd5b61095683838361293b565b505050565b600061096683610f0f565b82106109a7576040517f08c379a000000000000000000000000000000000000000000000000000000000815260040161099e9061477d565b60405180910390fd5b600660008473ffffffffffffffffffffffffffffffffffffffff1673ffffffffffffffffffffffffffffffffffffffff168152602001908152602001600020600083815260200190815260200160002054905092915050565b600b60009054906101000a900473ffffffffffffffffffffffffffffffffffffffff1673ffffffffffffffffffffffffffffffffffffffff16610a4161279c565b73ffffffffffffffffffffffffffffffffffffffff1614610a97576040517f08c379a0000000000000000000000000000000000000000000000000000000008152600401610a8e9061485d565b60405180910390fd5b80600b60146101000a81548160ff02191690831515021790555050565b610acf83838360405180602001604052806000815250611138565b505050565b610adc611066565b73ffffffffffffffffffffffffffffffffffffffff16610afa61279c565b73ffffffffffffffffffffffffffffffffffffffff161480610b285750600b60149054906101000a900460ff165b610b67576040517f08c379a0000000000000000000000000000000000000000000000000000000008152600401610b5e906147bd565b60405180910390fd5b6001600c54610b769190614c43565b600c81905550610b8f610b8761279c565b600c54612ba2565b565b6000610b9b6108ee565b8210610bdc576040517f08c379a0000000000000000000000000000000000000000000000000000000008152600401610bd390614a5d565b60405180910390fd5b60088281548110610c16577f4e487b7100000000000000000000000000000000000000000000000000000000600052603260045260246000fd5b90600052602060002001549050919050565b6060600d60008381526020019081526020016000208054610c4890614e3a565b80601f0160208091040260200160405190810160405280929190818152602001828054610c7490614e3a565b8015610cc15780601f10610c9657610100808354040283529160200191610cc1565b820191906000526020600020905b815481529060010190602001808311610ca457829003601f168201915b50505050509050919050565b6000806002600084815260200190815260200160002060009054906101000a900473ffffffffffffffffffffffffffffffffffffffff169050600073ffffffffffffffffffffffffffffffffffffffff168173ffffffffffffffffffffffffffffffffffffffff161415610d76576040517f08c379a0000000000000000000000000000000000000000000000000000000008152600401610d6d9061493d565b60405180910390fd5b80915050919050565b610d8761279c565b73ffffffffffffffffffffffffffffffffffffffff16610da684610ccd565b73ffffffffffffffffffffffffffffffffffffffff1614610dfc576040517f08c379a0000000000000000000000000000000000000000000000000000000008152600401610df3906148dd565b60405180910390fd5b73__$82487b622333c73091e64b85d90396f974$__6315c2e72983836040518363ffffffff1660e01b8152600401610e35929190614737565b60006040518083038186803b158015610e4d57600080fd5b505af4158015610e61573d6000803e3d6000fd5b505050506040513d6000823e3d601f19601f82011682018060405250810190610e8a9190613eee565b600f60008581526020019081526020016000209080519060200190610eb09291906138c8565b50610eb961279c565b6010600085815260200190815260200160002060006101000a81548173ffffffffffffffffffffffffffffffffffffffff021916908373ffffffffffffffffffffffffffffffffffffffff160217905550505050565b60008073ffffffffffffffffffffffffffffffffffffffff168273ffffffffffffffffffffffffffffffffffffffff161415610f80576040517f08c379a0000000000000000000000000000000000000000000000000000000008152600401610f779061491d565b60405180910390fd5b600360008373ffffffffffffffffffffffffffffffffffffffff1673ffffffffffffffffffffffffffffffffffffffff168152602001908152602001600020549050919050565b610fcf61279c565b73ffffffffffffffffffffffffffffffffffffffff16610fed611066565b73ffffffffffffffffffffffffffffffffffffffff1614611043576040517f08c379a000000000000000000000000000000000000000000000000000000000815260040161103a9061499d565b60405180910390fd5b61104d6000612bc0565b565b6000600b60149054906101000a900460ff16905090565b6000600a60009054906101000a900473ffffffffffffffffffffffffffffffffffffffff16905090565b60606001805461109f90614e3a565b80601f01602080910402602001604051908101604052809291908181526020018280546110cb90614e3a565b80156111185780601f106110ed57610100808354040283529160200191611118565b820191906000526020600020905b8154815290600101906020018083116110fb57829003601f168201915b5050505050905090565b61113461112d61279c565b8383612c86565b5050565b61114961114361279c565b8361285d565b611188576040517f08c379a000000000000000000000000000000000000000000000000000000000815260040161117f90614a1d565b60405180910390fd5b61119484848484612df3565b50505050565b6111a261394e565b600060116000848152602001908152602001600020600380602002604051908101604052809291906000905b828210156112715783820180546111e490614e3a565b80601f016020809104026020016040519081016040528092919081815260200182805461121090614e3a565b801561125d5780601f106112325761010080835404028352916020019161125d565b820191906000526020600020905b81548152906001019060200180831161124057829003601f168201915b5050505050815260200190600101906111ce565b50505050905060006003111561128a5780915050611348565b60405180606001604052806040518060400160405280600781526020017f236564633237310000000000000000000000000000000000000000000000000081525081526020016040518060400160405280600781526020017f236539343335650000000000000000000000000000000000000000000000000081525081526020016040518060400160405280600781526020017f23656463323731000000000000000000000000000000000000000000000000008152508152509150505b919050565b606061135882612730565b611397576040517f08c379a000000000000000000000000000000000000000000000000000000000815260040161138e906149bd565b60405180910390fd5b60006040518060400160405280600181526020017f2d00000000000000000000000000000000000000000000000000000000000000815250905060006040518060400160405280600181526020017f2d00000000000000000000000000000000000000000000000000000000000000815250905060006040518060400160405280600181526020017f2d0000000000000000000000000000000000000000000000000000000000000081525090506000600d6000878152602001908152602001600020805461146590614e3a565b80601f016020809104026020016040519081016040528092919081815260200182805461149190614e3a565b80156114de5780601f106114b3576101008083540402835291602001916114de565b820191906000526020600020905b8154815290600101906020018083116114c157829003601f168201915b5050505050905060088151141561185d576040518060200160405280600081525081600081518110611539577f4e487b7100000000000000000000000000000000000000000000000000000000600052603260045260246000fd5b602001015160f81c60f81b6040516020016115559291906145d9565b604051602081830303815290604052935083816001815181106115a1577f4e487b7100000000000000000000000000000000000000000000000000000000600052603260045260246000fd5b602001015160f81c60f81b6040516020016115bd9291906145d9565b60405160208183030381529060405293508381600281518110611609577f4e487b7100000000000000000000000000000000000000000000000000000000600052603260045260246000fd5b602001015160f81c60f81b6040516020016116259291906145d9565b60405160208183030381529060405293508381600381518110611671577f4e487b7100000000000000000000000000000000000000000000000000000000600052603260045260246000fd5b602001015160f81c60f81b60405160200161168d9291906145d9565b604051602081830303815290604052935060405180602001604052806000815250816004815181106116e8577f4e487b7100000000000000000000000000000000000000000000000000000000600052603260045260246000fd5b602001015160f81c60f81b6040516020016117049291906145d9565b60405160208183030381529060405292508281600581518110611750577f4e487b7100000000000000000000000000000000000000000000000000000000600052603260045260246000fd5b602001015160f81c60f81b60405160200161176c9291906145d9565b604051602081830303815290604052925060405180602001604052806000815250816006815181106117c7577f4e487b7100000000000000000000000000000000000000000000000000000000600052603260045260246000fd5b602001015160f81c60f81b6040516020016117e39291906145d9565b6040516020818303038152906040529150818160078151811061182f577f4e487b7100000000000000000000000000000000000000000000000000000000600052603260045260246000fd5b602001015160f81c60f81b60405160200161184b9291906145d9565b60405160208183030381529060405291505b6060806040518060400160405280600181526020017f7b000000000000000000000000000000000000000000000000000000000000008152506040516020016118a7929190614601565b6040516020818303038152906040529050806040518060400160405280601581526020017f226e616d65223a2254686544617465734e66742023000000000000000000000081525073__$3004768a5b38051ce832c8d4deef6ea8d6$__63c8b1f2f98a6040518263ffffffff1660e01b81526004016119269190614a7d565b60006040518083038186803b15801561193e57600080fd5b505af4158015611952573d6000803e3d6000fd5b505050506040513d6000823e3d601f19601f8201168201806040525081019061197b9190613ead565b6040518060400160405280600281526020017f222c0000000000000000000000000000000000000000000000000000000000008152506040516020016119c49493929190614625565b60405160208183030381529060405290508060405180606001604052806023815260200161566f60239139611a7873__$7f514ff8766e088946de974b32edd6e22d$__63ad711e9e6040518163ffffffff1660e01b815260040160006040518083038186803b158015611a3657600080fd5b505af4158015611a4a573d6000803e3d6000fd5b505050506040513d6000823e3d601f19601f82011682018060405250810190611a739190613ead565b612e4f565b6040518060400160405280600281526020017f222c000000000000000000000000000000000000000000000000000000000000815250604051602001611ac19493929190614625565b6040516020818303038152906040529050806040518060400160405280600e81526020017f2261747472696275746573223a5b000000000000000000000000000000000000815250604051602001611b1a929190614601565b6040516020818303038152906040529050806040518060400160405280600181526020017f7b00000000000000000000000000000000000000000000000000000000000000815250604051602001611b73929190614601565b6040516020818303038152906040529050806040518060400160405280601481526020017f2274726169745f74797065223a2279656172222c000000000000000000000000815250604051602001611bcc929190614601565b6040516020818303038152906040529050806040518060400160405280600981526020017f2276616c7565223a220000000000000000000000000000000000000000000000815250866040518060400160405280600181526020017f2200000000000000000000000000000000000000000000000000000000000000815250604051602001611c5e9493929190614625565b6040516020818303038152906040529050806040518060400160405280600281526020017f7d2c000000000000000000000000000000000000000000000000000000000000815250604051602001611cb7929190614601565b6040516020818303038152906040529050806040518060400160405280600181526020017f7b00000000000000000000000000000000000000000000000000000000000000815250604051602001611d10929190614601565b6040516020818303038152906040529050806040518060400160405280601581526020017f2274726169745f74797065223a226d6f6e7468222c0000000000000000000000815250604051602001611d69929190614601565b6040516020818303038152906040529050806040518060400160405280600981526020017f2276616c7565223a220000000000000000000000000000000000000000000000815250856040518060400160405280600181526020017f2200000000000000000000000000000000000000000000000000000000000000815250604051602001611dfb9493929190614625565b6040516020818303038152906040529050806040518060400160405280600281526020017f7d2c000000000000000000000000000000000000000000000000000000000000815250604051602001611e54929190614601565b6040516020818303038152906040529050806040518060400160405280600181526020017f7b00000000000000000000000000000000000000000000000000000000000000815250604051602001611ead929190614601565b6040516020818303038152906040529050806040518060400160405280601c81526020017f2274726169745f74797065223a226461795f6f665f6d6f6e7468222c00000000815250604051602001611f06929190614601565b6040516020818303038152906040529050806040518060400160405280600981526020017f2276616c7565223a220000000000000000000000000000000000000000000000815250846040518060400160405280600181526020017f2200000000000000000000000000000000000000000000000000000000000000815250604051602001611f989493929190614625565b6040516020818303038152906040529050806040518060400160405280600181526020017f7d00000000000000000000000000000000000000000000000000000000000000815250604051602001611ff1929190614601565b6040516020818303038152906040529050806040518060400160405280600181526020017f5d0000000000000000000000000000000000000000000000000000000000000081525060405160200161204a929190614601565b6040516020818303038152906040529050806040518060400160405280600181526020017f7d000000000000000000000000000000000000000000000000000000000000008152506040516020016120a3929190614601565b60405160208183030381529060405290508095505050505050919050565b6060600f600083815260200190815260200160002080546120e190614e3a565b80601f016020809104026020016040519081016040528092919081815260200182805461210d90614e3a565b801561215a5780601f1061212f5761010080835404028352916020019161215a565b820191906000526020600020905b81548152906001019060200180831161213d57829003601f168201915b50505050509050919050565b6060600183839050106122485773__$880c69509ad4b802c45b00832e111b2230$__6315dec6d2848460008181106121c7577f4e487b7100000000000000000000000000000000000000000000000000000000600052603260045260246000fd5b90506020028101906121d99190614ab3565b6040518363ffffffff1660e01b81526004016121f6929190614737565b60206040518083038186803b15801561220e57600080fd5b505af4158015612222573d6000803e3d6000fd5b505050506040513d601f19601f820116820180604052508101906122469190613e32565b505b50505050565b6000600560008473ffffffffffffffffffffffffffffffffffffffff1673ffffffffffffffffffffffffffffffffffffffff16815260200190815260200160002060008373ffffffffffffffffffffffffffffffffffffffff1673ffffffffffffffffffffffffffffffffffffffff16815260200190815260200160002060009054906101000a900460ff16905092915050565b6122ea61279c565b73ffffffffffffffffffffffffffffffffffffffff16612308611066565b73ffffffffffffffffffffffffffffffffffffffff161461235e576040517f08c379a00000000000000000000000000000000000000000000000000000000081526004016123559061499d565b60405180910390fd5b600073ffffffffffffffffffffffffffffffffffffffff168173ffffffffffffffffffffffffffffffffffffffff1614156123ce576040517f08c379a00000000000000000000000000000000000000000000000000000000081526004016123c5906147dd565b60405180910390fd5b6123d781612bc0565b50565b6123e261279c565b73ffffffffffffffffffffffffffffffffffffffff1661240184610ccd565b73ffffffffffffffffffffffffffffffffffffffff1614612457576040517f08c379a000000000000000000000000000000000000000000000000000000000815260040161244e906148dd565b60405180910390fd5b6040518060200160405280600081525080519060200120600d600085815260200190815260200160002060405161248e9190614663565b6040518091039020146124d6576040517f08c379a00000000000000000000000000000000000000000000000000000000081526004016124cd90614a3d565b60405180910390fd5b6000600e83836040516124ea92919061467a565b90815260200160405180910390205414612539576040517f08c379a0000000000000000000000000000000000000000000000000000000008152600401612530906149dd565b60405180910390fd5b73__$aaff8796557c45d263f594d4231e6566d8$__63ec9c241783836040518363ffffffff1660e01b8152600401612572929190614737565b60206040518083038186803b15801561258a57600080fd5b505af415801561259e573d6000803e3d6000fd5b505050506040513d601f19601f820116820180604052508101906125c29190613e32565b612601576040517f08c379a00000000000000000000000000000000000000000000000000000000081526004016125f8906147fd565b60405180910390fd5b8181600d60008681526020019081526020016000209190612623929190613975565b5082600e838360405161263792919061467a565b908152602001604051809103902081905550505050565b60007f80ac58cd000000000000000000000000000000000000000000000000000000007bffffffffffffffffffffffffffffffffffffffffffffffffffffffff1916827bffffffffffffffffffffffffffffffffffffffffffffffffffffffff1916148061271957507f5b5e139f000000000000000000000000000000000000000000000000000000007bffffffffffffffffffffffffffffffffffffffffffffffffffffffff1916827bffffffffffffffffffffffffffffffffffffffffffffffffffffffff1916145b80612729575061272882612fd9565b5b9050919050565b60008073ffffffffffffffffffffffffffffffffffffffff166002600084815260200190815260200160002060009054906101000a900473ffffffffffffffffffffffffffffffffffffffff1673ffffffffffffffffffffffffffffffffffffffff1614159050919050565b600033905090565b816004600083815260200190815260200160002060006101000a81548173ffffffffffffffffffffffffffffffffffffffff021916908373ffffffffffffffffffffffffffffffffffffffff160217905550808273ffffffffffffffffffffffffffffffffffffffff1661281783610ccd565b73ffffffffffffffffffffffffffffffffffffffff167f8c5be1e5ebec7d5bd14f71427d1e84f3dd0314c0f7b2291e5b200ac8c7c3b92560405160405180910390a45050565b600061286882612730565b6128a7576040517f08c379a000000000000000000000000000000000000000000000000000000000815260040161289e906148bd565b60405180910390fd5b60006128b283610ccd565b90508073ffffffffffffffffffffffffffffffffffffffff168473ffffffffffffffffffffffffffffffffffffffff16148061292157508373ffffffffffffffffffffffffffffffffffffffff1661290984610714565b73ffffffffffffffffffffffffffffffffffffffff16145b806129325750612931818561224e565b5b91505092915050565b8273ffffffffffffffffffffffffffffffffffffffff1661295b82610ccd565b73ffffffffffffffffffffffffffffffffffffffff16146129b1576040517f08c379a00000000000000000000000000000000000000000000000000000000081526004016129a89061481d565b60405180910390fd5b600073ffffffffffffffffffffffffffffffffffffffff168273ffffffffffffffffffffffffffffffffffffffff161415612a21576040517f08c379a0000000000000000000000000000000000000000000000000000000008152600401612a189061487d565b60405180910390fd5b612a2c838383613043565b612a376000826127a4565b6001600360008573ffffffffffffffffffffffffffffffffffffffff1673ffffffffffffffffffffffffffffffffffffffff1681526020019081526020016000206000828254612a879190614d24565b925050819055506001600360008473ffffffffffffffffffffffffffffffffffffffff1673ffffffffffffffffffffffffffffffffffffffff1681526020019081526020016000206000828254612ade9190614c43565b92505081905550816002600083815260200190815260200160002060006101000a81548173ffffffffffffffffffffffffffffffffffffffff021916908373ffffffffffffffffffffffffffffffffffffffff160217905550808273ffffffffffffffffffffffffffffffffffffffff168473ffffffffffffffffffffffffffffffffffffffff167fddf252ad1be2c89b69c2b068fc378daa952ba7f163c4a11628f55a4df523b3ef60405160405180910390a4612b9d838383613157565b505050565b612bbc82826040518060200160405280600081525061315c565b5050565b6000600a60009054906101000a900473ffffffffffffffffffffffffffffffffffffffff16905081600a60006101000a81548173ffffffffffffffffffffffffffffffffffffffff021916908373ffffffffffffffffffffffffffffffffffffffff1602179055508173ffffffffffffffffffffffffffffffffffffffff168173ffffffffffffffffffffffffffffffffffffffff167f8be0079c531659141344cd1fd0a4f28419497f9722a3daafe3b4186f6b6457e060405160405180910390a35050565b8173ffffffffffffffffffffffffffffffffffffffff168373ffffffffffffffffffffffffffffffffffffffff161415612cf5576040517f08c379a0000000000000000000000000000000000000000000000000000000008152600401612cec9061489d565b60405180910390fd5b80600560008573ffffffffffffffffffffffffffffffffffffffff1673ffffffffffffffffffffffffffffffffffffffff16815260200190815260200160002060008473ffffffffffffffffffffffffffffffffffffffff1673ffffffffffffffffffffffffffffffffffffffff16815260200190815260200160002060006101000a81548160ff0219169083151502179055508173ffffffffffffffffffffffffffffffffffffffff168373ffffffffffffffffffffffffffffffffffffffff167f17307eab39ab6107e8899845ad3d59bd9653f200f220920489ca2b5937696c3183604051612de6919061471c565b60405180910390a3505050565b612dfe84848461293b565b612e0a848484846131b7565b612e49576040517f08c379a0000000000000000000000000000000000000000000000000000000008152600401612e409061479d565b60405180910390fd5b50505050565b6060600082511415612e7257604051806020016040528060008152509050612fd4565b600060405180606001604052806040815260200161562f6040913990506000600360028551612ea19190614c43565b612eab9190614c99565b6004612eb79190614cca565b67ffffffffffffffff811115612ef6577f4e487b7100000000000000000000000000000000000000000000000000000000600052604160045260246000fd5b6040519080825280601f01601f191660200182016040528015612f285781602001600182028036833780820191505090505b509050600182016020820185865187015b80821015612f94576003820191508151603f8160121c168501518453600184019350603f81600c1c168501518453600184019350603f8160061c168501518453600184019350603f8116850151845360018401935050612f39565b5050600386510660018114612fb05760028114612fc357612fcb565b603d6001830353603d6002830353612fcb565b603d60018303535b50505080925050505b919050565b60007f01ffc9a7000000000000000000000000000000000000000000000000000000007bffffffffffffffffffffffffffffffffffffffffffffffffffffffff1916827bffffffffffffffffffffffffffffffffffffffffffffffffffffffff1916149050919050565b61304e83838361334e565b600073ffffffffffffffffffffffffffffffffffffffff168373ffffffffffffffffffffffffffffffffffffffff1614156130915761308c81613353565b6130d0565b8173ffffffffffffffffffffffffffffffffffffffff168373ffffffffffffffffffffffffffffffffffffffff16146130cf576130ce838261339c565b5b5b600073ffffffffffffffffffffffffffffffffffffffff168273ffffffffffffffffffffffffffffffffffffffff1614156131135761310e81613509565b613152565b8273ffffffffffffffffffffffffffffffffffffffff168273ffffffffffffffffffffffffffffffffffffffff161461315157613150828261364c565b5b5b505050565b505050565b61316683836136cb565b61317360008484846131b7565b6131b2576040517f08c379a00000000000000000000000000000000000000000000000000000000081526004016131a99061479d565b60405180910390fd5b505050565b60006131d88473ffffffffffffffffffffffffffffffffffffffff166138a5565b15613341578373ffffffffffffffffffffffffffffffffffffffff1663150b7a0261320161279c565b8786866040518563ffffffff1660e01b815260040161322394939291906146ae565b602060405180830381600087803b15801561323d57600080fd5b505af192505050801561326e57506040513d601f19601f8201168201806040525081019061326b9190613e84565b60015b6132f1573d806000811461329e576040519150601f19603f3d011682016040523d82523d6000602084013e6132a3565b606091505b506000815114156132e9576040517f08c379a00000000000000000000000000000000000000000000000000000000081526004016132e09061479d565b60405180910390fd5b805181602001fd5b63150b7a0260e01b7bffffffffffffffffffffffffffffffffffffffffffffffffffffffff1916817bffffffffffffffffffffffffffffffffffffffffffffffffffffffff191614915050613346565b600190505b949350505050565b505050565b6008805490506009600083815260200190815260200160002081905550600881908060018154018082558091505060019003906000526020600020016000909190919091505550565b600060016133a984610f0f565b6133b39190614d24565b9050600060076000848152602001908152602001600020549050818114613498576000600660008673ffffffffffffffffffffffffffffffffffffffff1673ffffffffffffffffffffffffffffffffffffffff168152602001908152602001600020600084815260200190815260200160002054905080600660008773ffffffffffffffffffffffffffffffffffffffff1673ffffffffffffffffffffffffffffffffffffffff168152602001908152602001600020600084815260200190815260200160002081905550816007600083815260200190815260200160002081905550505b6007600084815260200190815260200160002060009055600660008573ffffffffffffffffffffffffffffffffffffffff1673ffffffffffffffffffffffffffffffffffffffff16815260200190815260200160002060008381526020019081526020016000206000905550505050565b6000600160088054905061351d9190614d24565b9050600060096000848152602001908152602001600020549050600060088381548110613573577f4e487b7100000000000000000000000000000000000000000000000000000000600052603260045260246000fd5b9060005260206000200154905080600883815481106135bb577f4e487b7100000000000000000000000000000000000000000000000000000000600052603260045260246000fd5b906000526020600020018190555081600960008381526020019081526020016000208190555060096000858152602001908152602001600020600090556008805480613630577f4e487b7100000000000000000000000000000000000000000000000000000000600052603160045260246000fd5b6001900381819060005260206000200160009055905550505050565b600061365783610f0f565b905081600660008573ffffffffffffffffffffffffffffffffffffffff1673ffffffffffffffffffffffffffffffffffffffff168152602001908152602001600020600083815260200190815260200160002081905550806007600084815260200190815260200160002081905550505050565b600073ffffffffffffffffffffffffffffffffffffffff168273ffffffffffffffffffffffffffffffffffffffff16141561373b576040517f08c379a00000000000000000000000000000000000000000000000000000000081526004016137329061495d565b60405180910390fd5b61374481612730565b15613784576040517f08c379a000000000000000000000000000000000000000000000000000000000815260040161377b9061483d565b60405180910390fd5b61379060008383613043565b6001600360008473ffffffffffffffffffffffffffffffffffffffff1673ffffffffffffffffffffffffffffffffffffffff16815260200190815260200160002060008282546137e09190614c43565b92505081905550816002600083815260200190815260200160002060006101000a81548173ffffffffffffffffffffffffffffffffffffffff021916908373ffffffffffffffffffffffffffffffffffffffff160217905550808273ffffffffffffffffffffffffffffffffffffffff16600073ffffffffffffffffffffffffffffffffffffffff167fddf252ad1be2c89b69c2b068fc378daa952ba7f163c4a11628f55a4df523b3ef60405160405180910390a46138a160008383613157565b5050565b6000808273ffffffffffffffffffffffffffffffffffffffff163b119050919050565b8280546138d490614e3a565b90600052602060002090601f0160209004810192826138f6576000855561393d565b82601f1061390f57805160ff191683800117855561393d565b8280016001018555821561393d579182015b8281111561393c578251825591602001919060010190613921565b5b50905061394a91906139fb565b5090565b60405180606001604052806003905b606081526020019060019003908161395d5790505090565b82805461398190614e3a565b90600052602060002090601f0160209004810192826139a357600085556139ea565b82601f106139bc57803560ff19168380011785556139ea565b828001600101855582156139ea579182015b828111156139e95782358255916020019190600101906139ce565b5b5090506139f791906139fb565b5090565b5b80821115613a145760008160009055506001016139fc565b5090565b6000613a2b613a2684614b2f565b614b0a565b905082815260208101848484011115613a4357600080fd5b613a4e848285614df8565b509392505050565b6000613a69613a6484614b2f565b614b0a565b905082815260208101848484011115613a8157600080fd5b613a8c848285614e07565b509392505050565b6000613aa7613aa284614b60565b614b0a565b905082815260208101848484011115613abf57600080fd5b613aca848285614e07565b509392505050565b600081359050613ae1816155d2565b92915050565b60008083601f840112613af957600080fd5b8235905067ffffffffffffffff811115613b1257600080fd5b602083019150836020820283011115613b2a57600080fd5b9250929050565b600081359050613b40816155e9565b92915050565b600081519050613b55816155e9565b92915050565b600081359050613b6a81615600565b92915050565b600081519050613b7f81615600565b92915050565b600082601f830112613b9657600080fd5b8135613ba6848260208601613a18565b91505092915050565b600082601f830112613bc057600080fd5b8151613bd0848260208601613a56565b91505092915050565b60008083601f840112613beb57600080fd5b8235905067ffffffffffffffff811115613c0457600080fd5b602083019150836001820283011115613c1c57600080fd5b9250929050565b600082601f830112613c3457600080fd5b8151613c44848260208601613a94565b91505092915050565b600081359050613c5c81615617565b92915050565b600060208284031215613c7457600080fd5b6000613c8284828501613ad2565b91505092915050565b60008060408385031215613c9e57600080fd5b6000613cac85828601613ad2565b9250506020613cbd85828601613ad2565b9150509250929050565b600080600060608486031215613cdc57600080fd5b6000613cea86828701613ad2565b9350506020613cfb86828701613ad2565b9250506040613d0c86828701613c4d565b9150509250925092565b60008060008060808587031215613d2c57600080fd5b6000613d3a87828801613ad2565b9450506020613d4b87828801613ad2565b9350506040613d5c87828801613c4d565b925050606085013567ffffffffffffffff811115613d7957600080fd5b613d8587828801613b85565b91505092959194509250565b60008060408385031215613da457600080fd5b6000613db285828601613ad2565b9250506020613dc385828601613b31565b9150509250929050565b60008060408385031215613de057600080fd5b6000613dee85828601613ad2565b9250506020613dff85828601613c4d565b9150509250929050565b600060208284031215613e1b57600080fd5b6000613e2984828501613b31565b91505092915050565b600060208284031215613e4457600080fd5b6000613e5284828501613b46565b91505092915050565b600060208284031215613e6d57600080fd5b6000613e7b84828501613b5b565b91505092915050565b600060208284031215613e9657600080fd5b6000613ea484828501613b70565b91505092915050565b600060208284031215613ebf57600080fd5b600082015167ffffffffffffffff811115613ed957600080fd5b613ee584828501613baf565b91505092915050565b600060208284031215613f0057600080fd5b600082015167ffffffffffffffff811115613f1a57600080fd5b613f2684828501613c23565b91505092915050565b600060208284031215613f4157600080fd5b6000613f4f84828501613c4d565b91505092915050565b600080600060408486031215613f6d57600080fd5b6000613f7b86828701613c4d565b935050602084013567ffffffffffffffff811115613f9857600080fd5b613fa486828701613ae7565b92509250509250925092565b600080600060408486031215613fc557600080fd5b6000613fd386828701613c4d565b935050602084013567ffffffffffffffff811115613ff057600080fd5b613ffc86828701613bd9565b92509250509250925092565b60006140148383614201565b905092915050565b61402581614d58565b82525050565b600061403682614bb0565b6140408185614bde565b93508360208202850161405285614b91565b8060005b8581101561408e578484038952815161406f8582614008565b945061407a83614bd1565b925060208a01995050600181019050614056565b50829750879550505050505092915050565b6140a981614d6a565b82525050565b6140c06140bb82614d76565b614e9d565b82525050565b60006140d182614bbb565b6140db8185614be9565b93506140eb818560208601614e07565b6140f481614f63565b840191505092915050565b600061410a82614bbb565b6141148185614bfa565b9350614124818560208601614e07565b80840191505092915050565b6000815461413d81614e3a565b6141478186614bfa565b945060018216600081146141625760018114614173576141a6565b60ff198316865281860193506141a6565b61417c85614b9b565b60005b8381101561419e5781548189015260018201915060208101905061417f565b838801955050505b50505092915050565b60006141bb8385614c27565b93506141c8838584614df8565b6141d183614f63565b840190509392505050565b60006141e88385614c38565b93506141f5838584614df8565b82840190509392505050565b600061420c82614bc6565b6142168185614c05565b9350614226818560208601614e07565b61422f81614f63565b840191505092915050565b600061424582614bc6565b61424f8185614c16565b935061425f818560208601614e07565b61426881614f63565b840191505092915050565b6000614280602b83614c16565b915061428b82614f74565b604082019050919050565b60006142a3603283614c16565b91506142ae82614fc3565b604082019050919050565b60006142c6601f83614c16565b91506142d182615012565b602082019050919050565b60006142e9602683614c16565b91506142f48261503b565b604082019050919050565b600061430c603283614c16565b91506143178261508a565b604082019050919050565b600061432f602583614c16565b915061433a826150d9565b604082019050919050565b6000614352601c83614c16565b915061435d82615128565b602082019050919050565b6000614375603183614c16565b915061438082615151565b604082019050919050565b6000614398602483614c16565b91506143a3826151a0565b604082019050919050565b60006143bb601983614c16565b91506143c6826151ef565b602082019050919050565b60006143de602c83614c16565b91506143e982615218565b604082019050919050565b6000614401602583614c16565b915061440c82615267565b604082019050919050565b6000614424603883614c16565b915061442f826152b6565b604082019050919050565b6000614447602a83614c16565b915061445282615305565b604082019050919050565b600061446a602983614c16565b915061447582615354565b604082019050919050565b600061448d602083614c16565b9150614498826153a3565b602082019050919050565b60006144b0602c83614c16565b91506144bb826153cc565b604082019050919050565b60006144d3602083614c16565b91506144de8261541b565b602082019050919050565b60006144f6602f83614c16565b915061450182615444565b604082019050919050565b6000614519602083614c16565b915061452482615493565b602082019050919050565b600061453c602183614c16565b9150614547826154bc565b604082019050919050565b600061455f603183614c16565b915061456a8261550b565b604082019050919050565b6000614582601e83614c16565b915061458d8261555a565b602082019050919050565b60006145a5602c83614c16565b91506145b082615583565b604082019050919050565b6145c481614dee565b82525050565b6145d381614dee565b82525050565b60006145e582856140ff565b91506145f182846140af565b6001820191508190509392505050565b600061460d82856140ff565b915061461982846140ff565b91508190509392505050565b600061463182876140ff565b915061463d82866140ff565b915061464982856140ff565b915061465582846140ff565b915081905095945050505050565b600061466f8284614130565b915081905092915050565b60006146878284866141dc565b91508190509392505050565b60006020820190506146a8600083018461401c565b92915050565b60006080820190506146c3600083018761401c565b6146d0602083018661401c565b6146dd60408301856145bb565b81810360608301526146ef81846140c6565b905095945050505050565b60006020820190508181036000830152614714818461402b565b905092915050565b600060208201905061473160008301846140a0565b92915050565b600060208201905081810360008301526147528184866141af565b90509392505050565b60006020820190508181036000830152614775818461423a565b905092915050565b6000602082019050818103600083015261479681614273565b9050919050565b600060208201905081810360008301526147b681614296565b9050919050565b600060208201905081810360008301526147d6816142b9565b9050919050565b600060208201905081810360008301526147f6816142dc565b9050919050565b60006020820190508181036000830152614816816142ff565b9050919050565b6000602082019050818103600083015261483681614322565b9050919050565b6000602082019050818103600083015261485681614345565b9050919050565b6000602082019050818103600083015261487681614368565b9050919050565b600060208201905081810360008301526148968161438b565b9050919050565b600060208201905081810360008301526148b6816143ae565b9050919050565b600060208201905081810360008301526148d6816143d1565b9050919050565b600060208201905081810360008301526148f6816143f4565b9050919050565b6000602082019050818103600083015261491681614417565b9050919050565b600060208201905081810360008301526149368161443a565b9050919050565b600060208201905081810360008301526149568161445d565b9050919050565b6000602082019050818103600083015261497681614480565b9050919050565b60006020820190508181036000830152614996816144a3565b9050919050565b600060208201905081810360008301526149b6816144c6565b9050919050565b600060208201905081810360008301526149d6816144e9565b9050919050565b600060208201905081810360008301526149f68161450c565b9050919050565b60006020820190508181036000830152614a168161452f565b9050919050565b60006020820190508181036000830152614a3681614552565b9050919050565b60006020820190508181036000830152614a5681614575565b9050919050565b60006020820190508181036000830152614a7681614598565b9050919050565b6000602082019050614a9260008301846145ca565b92915050565b6000602082019050614aad60008301846145bb565b92915050565b60008083356001602003843603038112614acc57600080fd5b80840192508235915067ffffffffffffffff821115614aea57600080fd5b602083019250600182023603831315614b0257600080fd5b509250929050565b6000614b14614b25565b9050614b208282614e6c565b919050565b6000604051905090565b600067ffffffffffffffff821115614b4a57614b49614f34565b5b614b5382614f63565b9050602081019050919050565b600067ffffffffffffffff821115614b7b57614b7a614f34565b5b614b8482614f63565b9050602081019050919050565b6000819050919050565b60008190508160005260206000209050919050565b600060039050919050565b600081519050919050565b600081519050919050565b6000602082019050919050565b600081905092915050565b600082825260208201905092915050565b600081905092915050565b600082825260208201905092915050565b600082825260208201905092915050565b600082825260208201905092915050565b600081905092915050565b6000614c4e82614dee565b9150614c5983614dee565b9250827fffffffffffffffffffffffffffffffffffffffffffffffffffffffffffffffff03821115614c8e57614c8d614ea7565b5b828201905092915050565b6000614ca482614dee565b9150614caf83614dee565b925082614cbf57614cbe614ed6565b5b828204905092915050565b6000614cd582614dee565b9150614ce083614dee565b9250817fffffffffffffffffffffffffffffffffffffffffffffffffffffffffffffffff0483118215151615614d1957614d18614ea7565b5b828202905092915050565b6000614d2f82614dee565b9150614d3a83614dee565b925082821015614d4d57614d4c614ea7565b5b828203905092915050565b6000614d6382614dce565b9050919050565b60008115159050919050565b60007fff0000000000000000000000000000000000000000000000000000000000000082169050919050565b60007fffffffff0000000000000000000000000000000000000000000000000000000082169050919050565b600073ffffffffffffffffffffffffffffffffffffffff82169050919050565b6000819050919050565b82818337600083830152505050565b60005b83811015614e25578082015181840152602081019050614e0a565b83811115614e34576000848401525b50505050565b60006002820490506001821680614e5257607f821691505b60208210811415614e6657614e65614f05565b5b50919050565b614e7582614f63565b810181811067ffffffffffffffff82111715614e9457614e93614f34565b5b80604052505050565b6000819050919050565b7f4e487b7100000000000000000000000000000000000000000000000000000000600052601160045260246000fd5b7f4e487b7100000000000000000000000000000000000000000000000000000000600052601260045260246000fd5b7f4e487b7100000000000000000000000000000000000000000000000000000000600052602260045260246000fd5b7f4e487b7100000000000000000000000000000000000000000000000000000000600052604160045260246000fd5b6000601f19601f8301169050919050565b7f455243373231456e756d657261626c653a206f776e657220696e646578206f7560008201527f74206f6620626f756e6473000000000000000000000000000000000000000000602082015250565b7f4552433732313a207472616e7366657220746f206e6f6e20455243373231526560008201527f63656976657220696d706c656d656e7465720000000000000000000000000000602082015250565b7f54686520746f6b656e206973206e6f7420636c61696d61626c65206e6f772e00600082015250565b7f4f776e61626c653a206e6577206f776e657220697320746865207a65726f206160008201527f6464726573730000000000000000000000000000000000000000000000000000602082015250565b7f496e76616c6964206461746520737472696e6720666f726d61742e204974207360008201527f686f756c6420626520797979794d4d64642e0000000000000000000000000000602082015250565b7f4552433732313a207472616e736665722066726f6d20696e636f72726563742060008201527f6f776e6572000000000000000000000000000000000000000000000000000000602082015250565b7f4552433732313a20746f6b656e20616c7265616479206d696e74656400000000600082015250565b7f546869732066756e6374696f6e2073686f756c642062652063616c6c6564206260008201527f7920636f6e7472616374206f776e65722e000000000000000000000000000000602082015250565b7f4552433732313a207472616e7366657220746f20746865207a65726f2061646460008201527f7265737300000000000000000000000000000000000000000000000000000000602082015250565b7f4552433732313a20617070726f766520746f2063616c6c657200000000000000600082015250565b7f4552433732313a206f70657261746f7220717565727920666f72206e6f6e657860008201527f697374656e7420746f6b656e0000000000000000000000000000000000000000602082015250565b7f54686520746f6b656e206973206e6f74206f776e65642062792074686520616460008201527f6472657373000000000000000000000000000000000000000000000000000000602082015250565b7f4552433732313a20617070726f76652063616c6c6572206973206e6f74206f7760008201527f6e6572206e6f7220617070726f76656420666f7220616c6c0000000000000000602082015250565b7f4552433732313a2062616c616e636520717565727920666f7220746865207a6560008201527f726f206164647265737300000000000000000000000000000000000000000000602082015250565b7f4552433732313a206f776e657220717565727920666f72206e6f6e657869737460008201527f656e7420746f6b656e0000000000000000000000000000000000000000000000602082015250565b7f4552433732313a206d696e7420746f20746865207a65726f2061646472657373600082015250565b7f4552433732313a20617070726f76656420717565727920666f72206e6f6e657860008201527f697374656e7420746f6b656e0000000000000000000000000000000000000000602082015250565b7f4f776e61626c653a2063616c6c6572206973206e6f7420746865206f776e6572600082015250565b7f4552433732314d657461646174613a2055524920717565727920666f72206e6f60008201527f6e6578697374656e7420746f6b656e0000000000000000000000000000000000602082015250565b7f54686520646174652068617320616c7265616479206265656e2074616b656e2e600082015250565b7f4552433732313a20617070726f76616c20746f2063757272656e74206f776e6560008201527f7200000000000000000000000000000000000000000000000000000000000000602082015250565b7f4552433732313a207472616e736665722063616c6c6572206973206e6f74206f60008201527f776e6572206e6f7220617070726f766564000000000000000000000000000000602082015250565b7f546865206461746520686173206265656e20616c7265616479207365742e0000600082015250565b7f455243373231456e756d657261626c653a20676c6f62616c20696e646578206f60008201527f7574206f6620626f756e64730000000000000000000000000000000000000000602082015250565b6155db81614d58565b81146155e657600080fd5b50565b6155f281614d6a565b81146155fd57600080fd5b50565b61560981614da2565b811461561457600080fd5b50565b61562081614dee565b811461562b57600080fd5b5056fe4142434445464748494a4b4c4d4e4f505152535455565758595a6162636465666768696a6b6c6d6e6f707172737475767778797a303132333435363738392b2f22696d616765223a22646174613a696d6167652f7376672b786d6c3b6261736536342ca2646970667358221220f9342001f6f85603f3f00a56184c558cdfce76422252833a310d7cfd66f586f364736f6c63430008040033",
  "linkReferences": {
    "contracts/utils/Color.sol": {
      "Color": [
        {
          "length": 20,
          "start": 9395
        }
      ]
    },
    "contracts/utils/Date.sol": {
      "Date": [
        {
          "length": 20,
          "start": 10361
        }
      ]
    },
    "contracts/utils/Image.sol": {
      "Image": [
        {
          "length": 20,
          "start": 7474
        }
      ]
    },
    "contracts/utils/Message.sol": {
      "Message": [
        {
          "length": 20,
          "start": 4412
        }
      ]
    },
    "contracts/utils/Number.sol": {
      "Number": [
        {
          "length": 20,
          "start": 7215
        }
      ]
    }
  },
  "deployedLinkReferences": {
    "contracts/utils/Color.sol": {
      "Color": [
        {
          "length": 20,
          "start": 8565
        }
      ]
    },
    "contracts/utils/Date.sol": {
      "Date": [
        {
          "length": 20,
          "start": 9531
        }
      ]
    },
    "contracts/utils/Image.sol": {
      "Image": [
        {
          "length": 20,
          "start": 6644
        }
      ]
    },
    "contracts/utils/Message.sol": {
      "Message": [
        {
          "length": 20,
          "start": 3582
        }
      ]
    },
    "contracts/utils/Number.sol": {
      "Number": [
        {
          "length": 20,
          "start": 6385
        }
      ]
    }
  }
}