{
  "_format": "hh-sol-artifact-1",
  "contractName": "Message",
  "sourceName": "contracts/utils/Message.sol",
  "abi": [
    {
      "inputs": [
        {
          "internalType": "string",
          "name": "messageString",
          "type": "string"
        }
      ],
      "name": "normalizeMessageString",
      "outputs": [
        {
          "internalType": "string",
          "name": "",
          "type": "string"
        }
      ],
      "stateMutability": "pure",
      "type": "function"
    }
  ],
  "bytecode": "0x610c23610053600b82828239805160001a607314610046577f4e487b7100000000000000000000000000000000000000000000000000000000600052600060045260246000fd5b30600052607381538281f3fe73000000000000000000000000000000000000000030146080604052600436106100355760003560e01c806315c2e7291461003a575b600080fd5b610054600480360381019061004f9190610a15565b61006a565b6040516100619190610a93565b60405180910390f35b6060600083838080601f016020809104026020016040519081016040528093929190818152602001838380828437600081840152601f19601f8201169050808301925050505050505090506000603267ffffffffffffffff8111156100f8577f4e487b7100000000000000000000000000000000000000000000000000000000600052604160045260246000fd5b6040519080825280601f01601f19166020018201604052801561012a5781602001600182028036833780820191505090505b50905060005b81518110156109bf576001816101469190610ad1565b835110156101c057602060f81b82828151811061018c577f4e487b7100000000000000000000000000000000000000000000000000000000600052603260045260246000fd5b60200101907effffffffffffffffffffffffffffffffffffffffffffffffffffffffffffff1916908160001a9053506109ac565b60008382815181106101fb577f4e487b7100000000000000000000000000000000000000000000000000000000600052603260045260246000fd5b602001015160f81c60f81b90506000808061026b5750602060f81b827effffffffffffffffffffffffffffffffffffffffffffffffffffffffffffff1916148061026a5750602e60f81b827effffffffffffffffffffffffffffffffffffffffffffffffffffffffffffff1916145b5b9050808061044e5750603060f81b827effffffffffffffffffffffffffffffffffffffffffffffffffffffffffffff191614806102cd5750603160f81b827effffffffffffffffffffffffffffffffffffffffffffffffffffffffffffff1916145b806102fd5750603260f81b827effffffffffffffffffffffffffffffffffffffffffffffffffffffffffffff1916145b8061032d5750603360f81b827effffffffffffffffffffffffffffffffffffffffffffffffffffffffffffff1916145b8061035d5750603460f81b827effffffffffffffffffffffffffffffffffffffffffffffffffffffffffffff1916145b8061038d5750603560f81b827effffffffffffffffffffffffffffffffffffffffffffffffffffffffffffff1916145b806103bd5750603660f81b827effffffffffffffffffffffffffffffffffffffffffffffffffffffffffffff1916145b806103ed5750603760f81b827effffffffffffffffffffffffffffffffffffffffffffffffffffffffffffff1916145b8061041d5750603860f81b827effffffffffffffffffffffffffffffffffffffffffffffffffffffffffffff1916145b8061044d5750603960f81b827effffffffffffffffffffffffffffffffffffffffffffffffffffffffffffff1916145b5b905080806109315750606160f81b827effffffffffffffffffffffffffffffffffffffffffffffffffffffffffffff191614806104b05750606260f81b827effffffffffffffffffffffffffffffffffffffffffffffffffffffffffffff1916145b806104e05750606360f81b827effffffffffffffffffffffffffffffffffffffffffffffffffffffffffffff1916145b806105105750606460f81b827effffffffffffffffffffffffffffffffffffffffffffffffffffffffffffff1916145b806105405750606560f81b827effffffffffffffffffffffffffffffffffffffffffffffffffffffffffffff1916145b806105705750606660f81b827effffffffffffffffffffffffffffffffffffffffffffffffffffffffffffff1916145b806105a05750606760f81b827effffffffffffffffffffffffffffffffffffffffffffffffffffffffffffff1916145b806105d05750606860f81b827effffffffffffffffffffffffffffffffffffffffffffffffffffffffffffff1916145b806106005750606960f81b827effffffffffffffffffffffffffffffffffffffffffffffffffffffffffffff1916145b806106305750606a60f81b827effffffffffffffffffffffffffffffffffffffffffffffffffffffffffffff1916145b806106605750606b60f81b827effffffffffffffffffffffffffffffffffffffffffffffffffffffffffffff1916145b806106905750606c60f81b827effffffffffffffffffffffffffffffffffffffffffffffffffffffffffffff1916145b806106c05750606d60f81b827effffffffffffffffffffffffffffffffffffffffffffffffffffffffffffff1916145b806106f05750606e60f81b827effffffffffffffffffffffffffffffffffffffffffffffffffffffffffffff1916145b806107205750606f60f81b827effffffffffffffffffffffffffffffffffffffffffffffffffffffffffffff1916145b806107505750607060f81b827effffffffffffffffffffffffffffffffffffffffffffffffffffffffffffff1916145b806107805750607160f81b827effffffffffffffffffffffffffffffffffffffffffffffffffffffffffffff1916145b806107b05750607260f81b827effffffffffffffffffffffffffffffffffffffffffffffffffffffffffffff1916145b806107e05750607360f81b827effffffffffffffffffffffffffffffffffffffffffffffffffffffffffffff1916145b806108105750607460f81b827effffffffffffffffffffffffffffffffffffffffffffffffffffffffffffff1916145b806108405750607560f81b827effffffffffffffffffffffffffffffffffffffffffffffffffffffffffffff1916145b806108705750607660f81b827effffffffffffffffffffffffffffffffffffffffffffffffffffffffffffff1916145b806108a05750607760f81b827effffffffffffffffffffffffffffffffffffffffffffffffffffffffffffff1916145b806108d05750607860f81b827effffffffffffffffffffffffffffffffffffffffffffffffffffffffffffff1916145b806109005750607960f81b827effffffffffffffffffffffffffffffffffffffffffffffffffffffffffffff1916145b806109305750607a60f81b827effffffffffffffffffffffffffffffffffffffffffffffffffffffffffffff1916145b5b90508061094057602060f81b91505b8184848151811061097a577f4e487b7100000000000000000000000000000000000000000000000000000000600052603260045260246000fd5b60200101907effffffffffffffffffffffffffffffffffffffffffffffffffffffffffffff1916908160001a90535050505b80806109b790610b64565b915050610130565b50809250505092915050565b60008083601f8401126109dd57600080fd5b8235905067ffffffffffffffff8111156109f657600080fd5b602083019150836001820283011115610a0e57600080fd5b9250929050565b60008060208385031215610a2857600080fd5b600083013567ffffffffffffffff811115610a4257600080fd5b610a4e858286016109cb565b92509250509250929050565b6000610a6582610ab5565b610a6f8185610ac0565b9350610a7f818560208601610b31565b610a8881610bdc565b840191505092915050565b60006020820190508181036000830152610aad8184610a5a565b905092915050565b600081519050919050565b600082825260208201905092915050565b6000610adc82610b27565b9150610ae783610b27565b9250827fffffffffffffffffffffffffffffffffffffffffffffffffffffffffffffffff03821115610b1c57610b1b610bad565b5b828201905092915050565b6000819050919050565b60005b83811015610b4f578082015181840152602081019050610b34565b83811115610b5e576000848401525b50505050565b6000610b6f82610b27565b91507fffffffffffffffffffffffffffffffffffffffffffffffffffffffffffffffff821415610ba257610ba1610bad565b5b600182019050919050565b7f4e487b7100000000000000000000000000000000000000000000000000000000600052601160045260246000fd5b6000601f19601f830116905091905056fea26469706673582212203cb73d134d0698d2fe811d14aa9fb5b95506db6e0f8cbf8961aa16f48533708364736f6c63430008040033",
  "linkReferences": {},
  "deployedLinkReferences": {}
}