{
  "_format": "hh-sol-artifact-1",
  "contractName": "Color",
  "sourceName": "contracts/utils/Color.sol",
  "abi": [
    {
      "inputs": [
        {
          "internalType": "string",
          "name": "colorString",
          "type": "string"
        }
      ],
      "name": "validateColorString",
      "outputs": [
        {
          "internalType": "bool",
          "name": "",
          "type": "bool"
        }
      ],
      "stateMutability": "view",
      "type": "function"
    }
  ],
  "bytecode": "0x610340610053600b82828239805160001a607314610046577f4e487b7100000000000000000000000000000000000000000000000000000000600052600060045260246000fd5b30600052607381538281f3fe73000000000000000000000000000000000000000030146080604052600436106100355760003560e01c806315dec6d21461003a575b600080fd5b610054600480360381019061004f91906101d4565b61006a565b6040516100619190610261565b60405180910390f35b60008083838080601f016020809104026020016040519081016040528093929190818152602001838380828437600081840152601f19601f8201169050808301925050505050505090506100bd816100c8565b600191505092915050565b61015e816040516024016100dc919061027c565b6040516020818303038152906040527f0be77f56000000000000000000000000000000000000000000000000000000007bffffffffffffffffffffffffffffffffffffffffffffffffffffffff19166020820180517bffffffffffffffffffffffffffffffffffffffffffffffffffffffff8381831617835250505050610161565b50565b60008151905060006a636f6e736f6c652e6c6f679050602083016000808483855afa5050505050565b60008083601f84011261019c57600080fd5b8235905067ffffffffffffffff8111156101b557600080fd5b6020830191508360018202830111156101cd57600080fd5b9250929050565b600080602083850312156101e757600080fd5b600083013567ffffffffffffffff81111561020157600080fd5b61020d8582860161018a565b92509250509250929050565b610222816102ba565b82525050565b60006102338261029e565b61023d81856102a9565b935061024d8185602086016102c6565b610256816102f9565b840191505092915050565b60006020820190506102766000830184610219565b92915050565b600060208201905081810360008301526102968184610228565b905092915050565b600081519050919050565b600082825260208201905092915050565b60008115159050919050565b60005b838110156102e45780820151818401526020810190506102c9565b838111156102f3576000848401525b50505050565b6000601f19601f830116905091905056fea26469706673582212208c7441a299f755bc5697695ec48e7427a7918ab00eabd4cb5bc2f396914ce40d64736f6c63430008040033",
  "linkReferences": {},
  "deployedLinkReferences": {}
}